:020000040800F2
:10000000F008002099010008A1010008A3010008E0
:10001000A5010008A7010008A901000800000000D0
:10002000000000000000000000000000AB0100081C
:10003000AD01000800000000AF010008F90C000845
:10004000B3010008B3010008B3010008B3010008C0
:10005000B3010008B3010008B3010008B3010008B0
:10006000B3010008B3010008B3010008B3010008A0
:1000700031060008B301000849060008B301000872
:10008000B301000861060008B3010008B3010008CD
:10009000B3010008B3010008B3010008B301000870
:1000A000B3010008B3010008B3010008B301000860
:1000B000B3010008B3010008B3010008B301000850
:1000C000B3010008B3010008B3010008B301000840
:1000D000B3010008790D0008910D0008A90D000872
:1000E000B3010008B3010008B301000800F002F8F2
:1000F00000F043F80AA090E8000C82448344AAF17F
:100100000107DA4501D100F038F8AFF2090EBAE87C
:100110000F0013F0010F18BFFB1A43F0010318473B
:10012000742F0000942F0000103A24BF78C878C1C3
:10013000FAD8520724BF30C830C144BF04680C60ED
:10014000704700000023002400250026103A28BF35
:1001500078C1FBD8520728BF30C148BF0B60704739
:100160001FB59DE8030000F0A1F800F039F81FBDAD
:1001700010B5002001F0DDFD10BD00F0F4F81146CF
:10018000FFF7EEFF01F05AFE00F02CF903B4FFF781
:10019000EFFF03BC00F062F90948804709480047B7
:1001A000FEE7FEE7FEE7FEE7FEE7FEE7FEE7FEE727
:1001B000FEE7FEE704480549054A064B7047000084
:1001C000190D0008ED000008F0020020F0080020E2
:1001D000F0040020F00400207047704770470000D2
:1001E00070B5064C7C44064D7D4403E020682044F5
:1001F0008047241DAC42F9D170BD0000CC2E000018
:10020000D42E000000487047C402002070B5064696
:1002100000F030F8056806F10B0020F00704B44246
:100220009CBF002070BD2B466A68BAB11068A0421E
:1002300010D304F1080188423CBF5068586007D3CE
:100240005168101941601168091B01605860146001
:10025000101D70BD13465268002AE7D1214628467A
:1002600000F010F80028DED170BD00000048704793
:100270008C020020004870479402002070477047AD
:100280007047704738B504460A4600206946AFF308
:100290000080002808BF38BD02460099204600F0C3
:1002A00087F8012038BD012000F0A2B8F8B5AFF3FF
:1002B0000080054600200C46102000BF0646A81905
:1002C000A0420DD9324669460020AFF300800700F6
:1002D00008BF00F08DF80098A04218BF0546C41969
:1002E000FFF7C8FF05600746F01D20F0070046191C
:1002F000284600F00AF8B44208BFF8BDA21B3146F8
:100300003868BDE8F84000F053B800210160C0E94A
:10031000011070471020704770B50446051FFFF7A5
:10032000A9FF0068002C14BF446870BD002C18BFE2
:10033000AC423CBF20466468F8D301680A18AA4260
:1003400018BF456003D12A6805461144016028683A
:100350004119A1421CBF6C6070BD61686960216871
:100360000844286070BD7546FFF780FFAE46050063
:100370006946534620F00700854618B020B5FFF7C0
:1003800019FFBDE820404FF000064FF000074FF086
:1003900000084FF0000B21F00701AC46ACE8C009A3
:1003A000ACE8C009ACE8C009ACE8C0098D467047AC
:1003B000034640688C46002818BF88423CBF03466D
:1003C0004068F8D318681844884207D00CF103003D
:1003D00020F00700001D411A521A0146081D0A604C
:1003E000FFF79ABF0446AFF300802046FFF7CEFE2A
:1003F00010B500F00BF8BDE8104000F001B87047F0
:10040000002801D000F02AB87047000010B501287C
:1004100005D0002103A000F027F8012010BD09A19C
:10042000F8E7000053494752544D454D3A204F7567
:1004300074206F662068656170206D656D6F7279DC
:10044000000000003A2048656170206D656D6F7294
:100450007920636F727275707465640001491820A9
:10046000ABBEFEE72600020070B505460C460A202A
:1004700000E06D1C00F011F835B128780028F8D1A3
:1004800002E0641C00F009F814B120780028F8D1CB
:10049000BDE870400A20AFF3008008B569468DF8CA
:1004A00000000320ABBE08BD21B1826842F001020A
:1004B000826003E0826822F001028260704721B10D
:1004C000826842F48072826003E0826822F4807263
:1004D00082607047014600208A6802F004020AB177
:1004E000012000E000207047014600208A6802F0E9
:1004F00008020AB1012000E00020704730B5024632
:100500000020002350680F4C20400D790C6844EA0D
:1005100005242043506090680B4C2040D1E90254E0
:100520002C434D7944EA450420439060D06A20F47E
:1005300070000C7C641EE4B2234340EA0350D06296
:1005400030BD0000FFFEF0FFFDF7F1FFF0B50446FF
:100550000D4600200021092D11DDE068A5F10A06F5
:1005600006EB4607072606FA07F18843A5F10A06B7
:1005700006EB460603FA06F10843E0600CE020694A
:1005800005EB4507072606FA07F1884305EB450604
:1005900003FA06F108432061072A0FDA606B561E42
:1005A00006EB86071F2606FA07F18843561E06EB60
:1005B000860605FA06F10843606322E00D2A0FDA89
:1005C000206BD61F06EB86071F2606FA07F1884325
:1005D000D61F06EB860605FA06F10843206310E0F5
:1005E000E06AA2F10D0606EB86071F2606FA07F160
:1005F0008843A2F10D0606EB860605FA06F10843CC
:10060000E062F0BD816841F008018160704721B16E
:10061000826842F4A002826003E0826822F4A002B1
:1006200082607047816841F004018160704700007A
:1006300010B50448006818B10248006800F090FF47
:1006400010BD0000B800002010B50448006818B1C3
:100650000248006800F084FF10BD0000B0000020D8
:1006600010B50448006818B10248006800F078FF2F
:1006700010BD0000B400002000F0805111B103490A
:10068000086001E00249486070470000040402402D
:100690000000024000F0805111B10349086001E000
:1006A0000249486070470000040402400000024014
:1006B00021B1026842F00102026004E002684FF6D4
:1006C000FE731A400260704701684FF6FE721140D7
:1006D00001600021016041608160C1604B49884236
:1006E00008D14A490839496841F00F01474A083A98
:1006F00051608AE045491431884208D1434908399C
:10070000496841F0F001414A083A51607DE03F49B3
:100710002831884208D13D490839496841F470615F
:100720003A4A083A516070E038493C31884208D171
:1007300036490839496841F47041344A083A5160F1
:1007400063E032495031884208D13049083949685C
:1007500041F470212D4A083A516056E02B4964312A
:10076000884208D129490839496841F47001274A6B
:10077000083A516049E025497831884208D1234937
:100780000839496841F07061204A083A51603CE0FC
:100790001F49884206D1011F096841F00F01021F5D
:1007A000116032E01A491431884208D11849091FF2
:1007B000096841F0F001164A121F116025E0144942
:1007C0002831884208D11249091F096841F4706133
:1007D0000F4A121F116018E00D493C31884208D1C0
:1007E0000B49091F096841F47041094A121F116041
:1007F0000BE007495031884207D10549091F0968B4
:1008000041F47021024A121F116070470800024033
:100810000804024001460020002201F0805313B179
:10082000054B1A6801E0054B1A6802EA01030BB197
:10083000012000E000207047000402400000024058
:1008400010B50022026847F6F0739A430C6A8B6871
:1008500023430C6923434C6923438C692343CC69AC
:1008600023434C6A23438C6A23431A430260CB68B8
:1008700043600B6883604B68C36010BD2DE9F04195
:10088000024600250026002000230024002791F8BE
:1008900003C00CF00F0591F803C00CF0100CBCF174
:1008A000000F03D091F802C04CEA050591F800C092
:1008B000BCF1000F31D0146800202BE04FF0010C88
:1008C0000CFA00F3B1F800C00CEA03069E4220D1F6
:1008D00083004FF00F0C0CFA03F7BC4305FA03FC3E
:1008E0004CEA040491F803C0BCF1280F06D14FF084
:1008F000010C0CFA00FCC2F814C00AE091F803C025
:10090000BCF1480F05D14FF0010C0CFA00FCC2F805
:1009100010C0401C0828D1D31460B1F800C0BCF14D
:10092000FF0F34DD546800202EE000F1080C4FF07A
:10093000010808FA0CF3B1F800C00CEA03069E4265
:1009400021D183004FF00F0C0CFA03F7BC4305FADA
:1009500003FC4CEA040491F803C0BCF1280F05D154
:1009600000F1080C08FA0CF8C2F8148091F803C0E2
:10097000BCF1480F07D100F1080C4FF0010808FA4C
:100980000CF8C2F81080401C0828CED35460BDE893
:10099000F0810000F0B50A46002300240021002564
:1009A00000F00046B6F1004F02D11D4EF16901E0A2
:1009B0001B4E7168C0F3034583B200F44016B6F5D0
:1009C000401F08D121F07061154E766826F07066E0
:1009D000134F7E6012E000F48016B6F5801F06D13A
:1009E000032606FA05F4A14341F0706106E0460DC6
:1009F000360103FA06F6B14341F0706122B1460DAB
:100A0000360103FA06F6314300F00046B6F1004F16
:100A100002D1034EF16101E0014E7160F0BD0000B2
:100A2000000001400246002093680B400BB10120FA
:100A300000E000207047416170470161704700008D
:100A400070B5002100230F22C47804B3154C24682C
:100A500004F4E064C4F5E064210AC1F10403CA406F
:100A6000447804FA03F184781440214309010E4CC0
:100A70000678A155047804F01F050124AC400578E0
:100A80006D11AD0005F1E025C5F8004109E00478DD
:100A900004F01F050124AC40044D0678761145F89A
:100AA000264070BD0CED00E000E400E080E100E0D5
:100AB00002490143024A1160704700000000FA0534
:100AC0000CED00E001460020034A506820F440404D
:100AD00008435060704700000010024029B1064AE8
:100AE00052690243044B5A6104E0034A526982434B
:100AF000014B5A61704700000010024029B1064ABC
:100B0000D2690243044BDA6104E0034AD2698243AA
:100B1000014BDA61704700000010024029B1064A1B
:100B200092690243044B9A6104E0034A926982434A
:100B3000014B9A61704700000010024030B500215F
:100B40000022002400232D4D6D6805F00C0121B119
:100B5000042905D0082923D105E0294D056022E0AC
:100B6000274D05601FE0254D6D6805F47012234D7B
:100B70006D6805F48034022505EB92421CB9214DC5
:100B8000554305600BE01D4D6D6805F400351DB142
:100B90001C4D5543056002E0194D5543056002E0C8
:100BA000174D056000BF00BF144D6D6805F0F001E2
:100BB0000909154D6B5C0568DD4045600F4D6D689A
:100BC00005F4E061090A104D6B5C4568DD40856005
:100BD0000A4D6D6805F46051C90A0B4D6B5C4568A0
:100BE000DD40C560054D6D6805F44041890B074D3A
:100BF0006B5CC568B5FBF3F5056130BD00100240C4
:100C000000127A0000093D00E0000020F000002002
:100C100010B500F001F810BD0CB500200190009057
:100C20003348006840F480303149086000BF3048E4
:100C3000006800F4003000900198401C019000987A
:100C400018B90198B0F5A06FF1D12948006800F4F7
:100C5000003010B10120009001E0002000900098C9
:100C6000012843D12348006840F010002149086062
:100C70000846006820F0030008600846006840F05D
:100C8000020008601A4840681949486008464068F0
:100C900048600846406840F4806048600846406804
:100CA00020F47C1048600846406840F4E810486032
:100CB0000846006840F08070086000BF0C4800687B
:100CC00000F000700028F9D00948406820F00300C7
:100CD000074948600846406840F00200486000BF8D
:100CE0000348406800F00C000828F9D10CBD000052
:100CF000001002400020024010B5044A044B054990
:100D000003C901F091FB034A03C210BDCDCCCCCC8A
:100D1000CCCCFC3FD800002010B51348006840F050
:100D200001001149086008464068104908400E4912
:100D30004860084600680E4908400B4908600846AC
:100D4000006820F4802008600846406820F4FE0017
:100D500048604FF41F008860FFF75AFF4FF00060B3
:100D60000449086010BD0000001002400000FFF8B8
:100D7000FFFFF6FE08ED00E010B50448006818B16A
:100D80000248006800F084FB10BD0000B0000020A5
:100D900010B50448006818B10248006800F078FBFC
:100DA00010BD0000B400002010B50448006818B160
:100DB0000248006800F06CFB10BD0000B800002085
:100DC00010B50022002340F66A14A14200D100BFF2
:100DD0000A1201249440A3B2DC43048010BD21B167
:100DE000828942F40052828104E082894DF6FF73C9
:100DF0001A40828170471AB1838A0B43838202E0D2
:100E0000838A8B438382704702460020B1F5007FBE
:100E100000D100BF13880B400BB1012000E000207F
:100E2000704770B50246002400230025002040F6DC
:100E30006A16B14200D100BFC1F3421501F01F0391
:100E4000012606FA03F3012D02D19689334006E00C
:100E5000022D02D1168A334001E0968A33400C12EB
:100E6000012606FA04F41688344013B10CB10120AF
:100E700000E0002070BDF0B50346002400260025E8
:100E8000002040F66A17B94200D100BF1846C1F3EE
:100E9000421401F01F06012707FA06F5012C01D1C3
:100EA0000C3004E0022C01D1103000E014301AB1F3
:100EB00007682F43076002E00768AF430760F0BD93
:100EC0002DE9F04786B005460E460024A24600BF35
:100ED000A1460027B08900B100BF2F462C8A4CF6EE
:100EE000FF700440F08804432C82AC894EF6F31066
:100EF0000440B08831890843718908430443AC81B8
:100F0000AC8A4FF6FF400440B0890443AC8201A88C
:100F1000FFF714FE1F48874202D1DDF810A001E060
:100F2000DDF80CA0A88900F4004040B10AEBCA002B
:100F300000EB0A1031684900B0FBF1F807E00AEB5A
:100F4000CA0000EB0A1031688900B0FBF1F8642098
:100F5000B8FBF0F004012009642101FB1089A88985
:100F600000F4004040B1322000EBC900B0FBF1F0CA
:100F700000F00700044308E0322000EB0910642170
:100F8000B0FBF1F000F00F0004432C8106B0BDE887
:100F9000F08700000038014001468888C0F308004F
:100FA0007047C1F308028280704700002DE9F047C6
:100FB0004FF0E021886901F070FC06460022174BD3
:100FC00001F0E6FA04460D46154A164B164903C9C8
:100FD00001F02AFA804622462B4601F0E1FD134A31
:100FE00003C2134811490CC803C901F0D9FD0446D6
:100FF000104A114B01F09EFD07D2094A094B0B49DB
:1010000003C901F0CDFD094A03C2084903C9084AD2
:1010100003C2064903C9BDE8F0870000882A614180
:10102000CDCCCCCCCCCCFC3FD8000020C8000020DC
:10103000D000002062105839B4C8FC3F2DE9FC5F95
:1010400083460C46FFF7B2FF05460E4600BF20461A
:1010500001F023FC074600220A4B01F099FA814671
:101060008A46FFF7A3FF07462A46334601F098FD5C
:101070004A465346CDE9000101F022FCE7D3BDE822
:10108000FC9F000000408F402DE9FC5F83460C462A
:10109000FFF78CFF05460E4600BF204601F0FDFB22
:1010A000074600220A4B01F073FA81468A46FFF791
:1010B0007DFF07462A46334601F072FD4A465346F5
:1010C000CDE9000101F0FCFBE7D3BDE8FC9F000087
:1010D00080842E414FF0E021096921F004014FF096
:1010E000E0221161034951611146096941F0030190
:1010F000116170474031F70030B504460878FF2889
:101100001FD14878DD281CD188780006CA7800EB0A
:1011100002400A7900EB02204A798318022B0FD192
:101120000022002003E00D5C2A44451CE8B2072899
:10113000F9DBC879D5B2A84201D1887930BD00BFAA
:1011400000BF0020FAE770B50C46FF210170CC21EA
:10115000417000218170C170017101214171817163
:10116000C47102724372002104E0C57C465C3544C0
:10117000C574491C1329F8DB70BD70B50C46FF21FE
:101180000170CC21417000218170C1700171012179
:10119000417102218171C47102724372002104E025
:1011A000C57C465C3544C574491C1329F8DB70BD09
:1011B0000146002006E0002301F11402135400222E
:1011C0000A54401C1428F6DB084670472DE9FF4FEF
:1011D00091B00F4690469946DDF878A00A2F02DAC2
:1011E00001207C49C855B8F10A0F03DA012079497A
:1011F00001F80800B9F10A0F03DA0120754901F876
:101200000900BAF10A0F03DA0120724901F80A0055
:101210001F980A2803DA01216E4A1F98115420985A
:101220000A2803DA01216B4A2098115421980A28D0
:1012300003DA0121674A2198115422980A2803DA17
:101240000121644A2298115423980A2803DA0121C3
:10125000604A2398115424980A2803DA01215D4A30
:1012600024981154002500260024002010E059493C
:10127000095C61B1611C8CB2082804DA564931F866
:1012800010100D4303E0544931F810100E43401C78
:101290000A28ECDB00208DF843004DB10121042029
:1012A000FFF73CFCADF8405010A94C48FFF7E6FAB8
:1012B0004EB101210820FFF731FCADF8406010A9C4
:1012C0004748FFF7DBFA01210846FFF707FC4548CE
:1012D000FFF7FAF94448059044480690002007902B
:1012E0000894099080200A9040000B9080000C9098
:1012F00020200D9000020E9000200F9005A9394883
:10130000FFF79EFA01213748FFF7D2F90121480281
:10131000FFF704FC01210846FFF700FC4FF40040F2
:10132000FFF7D0FB0020009001208DF804008DF81D
:1013300005004FF46020029000200390E0B28DF889
:101340001000694628484C38FFF7D8F84FF0090BD1
:1013500013E0204810F80B0068B12046631E9CB2D1
:10136000C2B20BF0FF0107231F484C38FFF7EEF81D
:101370001F4901F80B40ABF1010BBBF1000FE8DA9C
:10138000012119484C38FFF79AF8012116484C38CA
:10139000FFF78AF814484C38FFF734F900BF1248B9
:1013A0004C38FFF7A1F80028F9D10F484C38FFF767
:1013B00039F900BF0C484C38FFF78CF80028F9D1F8
:1013C000012109484C38FFF722F9119815B0BDE802
:1013D000F08F0000F4000020000000200008014011
:1013E000000C0140080002404C240140080100208C
:1013F000FE0000202DE9F04107460C460A2C03DBD5
:1014000000200146BDE8F0810948005D68B1094946
:10141000095D094A32F8110001F03FFA05464FF024
:101420006632064B01F088FAECE700200146E9E756
:10143000F4000020FE0000200801002066664A3FFC
:1014400010B50446204600F0B0FF10BD70B504464C
:101450000E46154604F13A0000F0A4FFA84201DA56
:10146000002070BD2A46314604F13A0000F05EFFCC
:101470000120F6E710B5044604F13A0000F092FFAF
:1014800010BD10B5044604F13A0000F08EFF10BD07
:1014900038B5044640F22551D4F88C00FFF7C1FC62
:1014A00088B1D4F88C00FFF777FDC0B26946009090
:1014B00004F13A0000F022FF40F22551D4F88C00EC
:1014C000FFF77EFC00BF40F22771D4F88C00FFF7D5
:1014D000A8FCE0B1204600F065FF002809DD1E49A8
:1014E000204600F0F5FE1C490978D4F88C00FFF77F
:1014F00058FD204600F056FF48B9002240F22771FF
:10150000D4F88C00FFF7B7FC002084F8980040F274
:101510002661D4F88C00FFF784FCE0B1204600F08F
:1015200041FF002809DD0D49204600F0D1FE0B499E
:101530000978D4F88C00FFF734FD204600F032FF24
:1015400048B9002240F22661D4F88C00FFF793FCE2
:10155000002084F8980038BD2D0000202E000020C7
:1015600070B50446D4F89000FFF754F9012839D13A
:101570008834E068FFF78EF8A068FFF77DF854F82C
:1015800088090021FFF794F8204600F00BFF00289F
:1015900025DD204600F006FF142810DC204600F070
:1015A00001FFD4F888104860204600F0FBFE054695
:1015B0002A4604F17401204600F0B8FE09E0142028
:1015C000D4F888104860142204F17401204600F019
:1015D000ADFE0121D4F88800FFF76AF802E0002090
:1015E00084F8980070BD00002DE9F04104460E46D5
:1015F0001546AAB23146204600F0B5FE94F899008F
:1016000078B394F8980060BB204600F0CBFE002829
:1016100027DD012084F89800204600F0C3FE14283E
:1016200010DC204600F0BEFED4F88810486020464A
:1016300000F0B8FE07463A4604F17401204600F077
:1016400075FE09E01420D4F888104860142204F1D3
:101650007401204600F06AFE0121D4F88800FFF7EB
:1016600027F894F8990020BB94F8980008BB20460E
:1016700000F098FE00281CDD54F88C0F40F2266123
:10168000FFF79EFB012240F226612068FFF7F3FB83
:1016900040212068FFF7B8FB012020738C3C0649ED
:1016A000204600F015FE04490978D4F88C00FFF7B5
:1016B00078FC0120BDE8F0812C0000202DE9F04FDE
:1016C00093B004460E4692469B461C9F204600F06F
:1016D00071FE044604F13A0000F06CFEA0F13A04F9
:1016E000002084F8980084F899B0032084F89A00C8
:1016F00018208DF84B0003208DF84A008DF8460025
:1017000004208DF84700012E34D1C648C4F88C005F
:101710004FF0250894F8990048B1C34844F8880F61
:101720004FF00E097003A0604010E060883CBF4895
:101730000460012F10D1012144F20900FFF7EEF9F6
:1017400001210420FFF726F94020ADF84800802051
:10175000ADF84400B64D9FE0012144F20500FFF7CB
:10176000DDF94FF40070ADF848004000ADF84400DA
:10177000B04D91E0022E3AD1AF48C4F88C004FF042
:10178000260894F8990050B1A7483C3044F8880FD7
:101790004FF011098004A0604010E060883CA74829
:1017A0000460012F13D101214804FFF7A7F901219B
:1017B0002120FFF7B3F901210820FFF7EBF82020E3
:1017C000ADF848004020ADF844009D4D64E0012193
:1017D0004804FFF793F901210520FFF79FF9042042
:1017E000ADF848000820ADF84400924D54E0032EB7
:1017F00052D19448C4F88C004FF0270894F899000F
:1018000050B18948283844F8880F4FF00C0920203F
:10181000A0601020E060883C8B480460012F13D149
:1018200001218804FFF76AF901211120FFF776F9F9
:1018300001218648FFF7AEF8B802ADF84800400035
:10184000ADF84400824D27E0112F15D10121880405
:10185000FFF754F901212120FFF760F901217B48AE
:101860002030FFF797F84FF48070ADF84800400043
:10187000ADF84400724D0FE001218804FFF73EF9F6
:1018800001210920FFF74AF94FF48060ADF84800C4
:101890004000ADF84400664D12A92846FEF7EEFF61
:1018A00011A92846FEF7EAFFCDF834A02298ADF83A
:1018B00038002398ADF83A002198ADF83C0000209C
:1018C000ADF840000C20ADF83E0054F88C0F0DA987
:1018D000FFF7F6FA01212068FFF781FA607B8C3C64
:1018E00000283FD001228021D4F88C00FFF783FA32
:1018F00001210846FFF7F2F8D4F88C00001D019092
:1019000004F17400029010200390002004900590D0
:10191000802006900020079008900990209820B120
:10192000012806D002280CD107E04FF440500A905D
:101930000AE04FF400500A9006E04FF480500A90FD
:1019400002E000200A9000BF00BF00200B9001A918
:10195000D4F88800FEF774FF0021D4F88800FEF761
:10196000A7FE06E0002240F22661D4F88C00FFF7C3
:1019700082FA1D9830B1012809D002280CD0042821
:101980000FD113E04FF4E060FFF792F813E04FF44B
:10199000C060FFF78DF80EE04FF4A060FFF788F805
:1019A00009E04FF48060FFF783F804E04FF44070E3
:1019B000FFF77EF800BF00BF8DF830801E988DF8CD
:1019C00031001F988DF8320001208DF833000CA8EB
:1019D000FFF736F8012240F22551D4F88C00FFF7CA
:1019E0004AFA94F89900C0B18DF830901E988DF89D
:1019F00031001F988DF832000CA8FFF721F854F839
:101A0000880F006840F002002168086020680068C4
:101A100040F0080054F888190860204613B0BDE86B
:101A2000F08F00000038014044000240B000002068
:101A3000000C01400008014000440040B4000020B8
:101A40000014014000480040B800002010001400BD
:101A5000001001400D4AD0F88C10914203D10021B2
:101A60000B4A116010E00B4AD0F88C10914203D160
:101A70000021094A116007E0084AD0F88C10914211
:101A800002D10021064A1160704700000038014071
:101A9000B000002000440040B40000200048004096
:101AA000B800002070B50446FFF780FA054600F044
:101AB00089FC21490860214801681F48006801F03D
:101AC00073FA1F4908601E486168006801F0ECF96C
:101AD00001D2002070BD18480068184908602046EF
:101AE00000F046F810211748FEF7A5FF122116480E
:101AF000FFF7A4FA10211348FEF79FFF192112489F
:101B0000FFF7C2FA204600F021F810210D48FEF739
:101B100089FF78B900BF10210A48FEF783FF00282B
:101B2000F9D000BF10210748FEF77CFF0128F9D04B
:101B30000120CFE70020CDE714000020180000208E
:101B40001C00002000080140C000002038B50446F9
:101B50001020ADF8000003208DF8020004208DF85D
:101B6000030069460148FEF789FE38BD00080140C0
:101B700038B504461020ADF8000003208DF80200AF
:101B800010208DF8030069460148FEF777FE38BD46
:101B90000008014070B50446002527E02078400683
:101BA000000E207014211348FFF76EFA00BF1021B9
:101BB0001148FEF737FF0028F9D01A210D48FFF72A
:101BC00063FA10210C48FEF72DFF012808D1207878
:101BD00040F00100207028210648FFF755FA03E085
:101BE000207800F0FE002070681CC5B2082DD5DBFF
:101BF000207870BDC0000020000801402DE9FC5F86
:101C00000446FFF7D3F9CDE9000100F0DBFB3549CD
:101C10000860354801683348006801F0C5F9334968
:101C200008600846006801F0A5F80022304BCDE9B5
:101C3000000100F045FE02D20020BDE8FC9F2948CB
:101C40000068294908602046FFF72CFFD8B12046DC
:101C5000FFF7A0FF20722046FFF79CFF607220462E
:101C6000FFF798FFA0722046FFF794FFE07220462E
:101C7000FFF790FF6070217A607A0144A07A0144F6
:101C8000E07A0844C7B26078B84229D1607A217AF4
:101C900040EA01250A2095FBF0F100FB115000F00D
:101CA000FF090A2095FBF0F000F0FF08E17AA07A26
:101CB00041EA00260A2096FBF0F000F0FF0A0A2015
:101CC00096FBF0F100FB116000F0FF0B84F80C8034
:101CD00084F80D9084F80EA084F80FB00120ACE7D2
:101CE0000020AAE720000020240000202800002077
:101CF0000000E03F0149416070470000CDCCCC3D81
:101D00002DE9F041074690460E4600251020FEF7CB
:101D10007DFA04000BD0C4F80C80C4E90176FEF70C
:101D200071FA0168216004602846BDE8F081012550
:101D3000FAE72DE9F0410646FEF764FA804613E023
:101D400026B1E068B04201D025460EE02068286048
:101D5000D4E90101D8F8007088472046FEF7DCFA84
:101D6000D8F80000B84200D045462C68002CE7D1D6
:101D7000BDE8F08100B50248FFF7ACF900BD0000F6
:101D8000C000002000B50248FFF712FA00BD0000B5
:101D90006402002010B588B000200323CDE9043090
:101DA00006900790012007211A460023CDE9003252
:101DB000CDE902104FF4E13201461A48FFF77EFCEC
:101DC0000446194A1949FFF79BFF00200323CDE978
:101DD000043006900790012007211A460023CDE920
:101DE0000032CDE9021003464FF4E13203211048DE
:101DF000FFF764FC04460C4A0C49FFF781FFFF2003
:101E000003900490059006900090019003460246CE
:101E1000082102900748FFF7D9F90748FFF76AFF42
:101E200008B010BD1C01002000000008551A000871
:101E3000B8010020AE000020540200201FB5062289
:101E4000F949FA48FFF7D0FB4FF47A71F848FFF7E9
:101E5000F5F80D22F749F548FFF7C6FB4FF47A7104
:101E6000F348FFF7EBF81522F349F048FFF7BCFB06
:101E70004FF47A71EE48FFF7E1F84FF001090024C2
:101E80001AE2EE48FFF7F6FA07282ADD082202A92F
:101E9000EA48FFF7DBFAE948FFF7F3FA02A9E84856
:101EA000FFF72AF9E749087008460078022801D1AF
:101EB000814616E0E3480078032801D1814610E00E
:101EC000E0480078012801D181460AE0DD48007829
:101ED000FF2801D1814604E0DA480078BB2800D110
:101EE0008146012C53D1D148FFF7C4FA28284EDD92
:101EF0000020019045E0012201A9CC48FFF7A6FA95
:101F00009DF80400FF283CD1012201A9C748FFF732
:101F10009DFA9DF80400DD2833D104226946C348A8
:101F2000FFF794FA9DF800009DF8011008449DF811
:101F3000021008449DF803104518012D21D10122FB
:101F4000C049BA48FFF782FABE480078022801D19A
:101F5000814616E0BB480078032801D1814610E095
:101F6000B8480078012801D181460AE0B5480078D8
:101F7000FF2801D1814604E0B2480078BB2800D197
:101F80008146AA48FFF776FA0828B4DC00BFB9F109
:101F9000010F7CD0B9F1020F06D0B9F1030F77D051
:101FA000B9F1FF0F75D158E1A748FFF727FE0821C7
:101FB000A648FFF71FFA07460022A54B00F0BCFC1D
:101FC000054600F03DFC00F0FF0B9F48427B017B83
:101FD0005B469B48FFF7D1F882461422514697484A
:101FE000FFF702FB64219248FFF728F80821974881
:101FF000FFF700FA07460022954B00F09DFC0546CE
:1020000000F01EFC00F0FF0B8F48C27B817B5B461B
:102010008B48FFF798F88246142251468748FFF70D
:10202000E3FA012C5BD111228A498048FFF7DCFAE0
:1020300064217F48FFF702F87C48FFF701FA082186
:102040008248FFF7D7F907460022814B00F074FC65
:10205000054600F0F5FB00F0FF0B7B48427B017B5F
:102060005B467748FFF789F88246142251466F484D
:10207000FFF7BAFA4FF4FA716D48FEF7DFFF11224D
:1020800074496A48FFF7B0FA6421694802E0E3E066
:1020900028E010E1FEF7D2FF6448FFF7D1F90821EC
:1020A0006A48FFF7A7F907460022694B00F044FC95
:1020B000054600F0C5FB00F0FF0B6348C27B817B47
:1020C0005B465F48FFF73FF88246142251465B4863
:1020D000FFF78AFA4FF4FA715548FEF7AFFF4FF059
:1020E0000109E8E05848FFF789FD00287ED0082163
:1020F0005648FFF77FF907460022554B00F01CFCBD
:10210000054600F09DFB00F0FF0B4F48427B017B32
:102110005B464B48FFF731F8824614225146474848
:10212000FFF762FA64214248FEF788FF082147481A
:10213000FFF760F907460022454B00F0FDFB05461E
:1021400000F07EFB00F0FF0B3F48C27B817B5B46CB
:102150003B48FFF712F88246142251463748FFF7F2
:1021600043FA012C59D111223A493048FFF73CFA81
:1021700064212F48FEF762FF2C48FFF761F9082120
:102180003248FFF737F907460022314B00F0D4FB05
:10219000054600F055FB00F0FF0B2B48427B017B0E
:1021A0005B462748FEF7E9FF824614225146234842
:1021B000FFF71AFA4FF4FA711D48FEF73FFF11229C
:1021C00024491A48FFF710FA64211948FEF736FF30
:1021D0001648FFF735F908211C48FFF70BF90746A9
:1021E00000221B4B00F0A8FB054600E01AE000F0BF
:1021F00027FB00F0FF0B1448C27B817B5B46104835
:10220000FEF7BBFF8246142251460C48FFF7ECF95B
:102210004FF4FA710648FEF711FF4FF47A71044843
:10222000FEF70CFF47E00000A8000020B8010020E6
:10223000C00000205D000020820000201C01002062
:1022400064020020AF00002054020020AE000020F5
:1022500000005940970000202DE0FF231A46194640
:102260001648FEF78AFF0546142229461448FFF750
:10227000BBF9012C1CD1112212491348FFF7B4F904
:1022800064211248FEF7DAFE0F48FFF7D9F8FF2362
:102290001A4619460948FEF770FF054614222946DA
:1022A0000948FFF7A1F94FF4FA710848FEF7C6FE96
:1022B0004FF0010900BF00BFE3E500006402002009
:1022C0001C01002097000020B8010020C000002061
:1022D0000246908E002801DC00207047D38E581CE7
:1022E000D086D05C0870D08E538E984201DB0020DF
:1022F000D086908E401E90860120EEE710B50246F3
:10230000908E538E984201DB002010BD0B78148F05
:10231000601C10871355108F538E984201DB0020EC
:102320001087908E401C90860120EEE730B5034662
:10233000988E904201DA002030BD00200CE0DD8E46
:102340006C1CDC865C5D0C54DC8E5D8EAC4201DB6B
:102350000024DC86441CA0B29042F0DB988E801AE8
:1023600098860120E8E770B50346988E10445C8E8D
:10237000A04201DD002070BD00200CE00D5C1E8F2E
:10238000741C1C879D551C8F5D8EAC4201DB0024A4
:102390001C87441CA0B29042F0DB988E10449886B3
:1023A0000120E8E70146888E704700218186C186BA
:1023B000018770473221418600218186C1860187CD
:1023C0007047000021F00042A2F16052B2F5801F78
:1023D00001F0004328BFD2F17F6C0BD95FEA001CEB
:1023E00043EAC20242EB507018BF704728BF20F08A
:1023F00001007047B2F5801FBCBF184670474FEA16
:10240000410C1CF5001F02D2084600F0C7BD70B594
:1024100000F03CFB00000089FFF7F6BF4FF00040E2
:10242000A0F580007047000010B591EA030F48BF87
:1024300083F0004300F1BC83841A71EB030C05D2D6
:10244000121943EB0C03001B61EB0C01DFF824E1D4
:102450004FEA1154A4EB135C1EEA430F18BF9EEA27
:10246000445F73D023EA0E03DCF1200E21EA04510D
:1024700043F4801332D322FA0CFE10EB0E0023FA41
:102480000CFE41EB0E01CCF1200E03FA0EFE10EB18
:102490000E0051F10001B1F5801FCCF1200E32D2B7
:1024A00001EB045112FA0EF2BDE8104058BF70471C
:1024B000401C38BF5FEA420218BF7047002814BFB3
:1024C00020F0010041F100014FEA410313F5001F24
:1024D00038BF7047A1F1C04100F026BB012A43EB91
:1024E0000302ACF1200CDCF11F0E32BF4FF0000EE6
:1024F00023FA0CF310EB030041EB0451B4EB115F32
:10250000D0D0A1EB045101F5801149085FEA3000F9
:1025100001EB04510ED350F1000038BF12FA0EFE49
:1025200008D1BDE81040C9E7401C38BF5FEA42024D
:10253000CAD1C3E7BDE810404FEA410313F5001FBD
:1025400038BF7047A1F1C04100F0EEBA9EEA445F87
:1025500008D011EA5E0FBDE8104004BF01F0004151
:1025600000207047BDE8104070B500F08FFA00BF42
:1025700064FBBE3E0000E0FF491058BFC1F140417E
:102580005B1058BFC3F140438B42EFF300807047AC
:102590002DE9C04130B4DFF8A0C23CEA111418BFE5
:1025A0003CEA131400F0EC8081EA03051CEA1114E4
:1025B00044EAD57418BF1CEA131500F0C780A4EBD9
:1025C00005044FF0004545EAC12145EAC32341EA2D
:1025D000505143EA525304F17F74994204F5003498
:1025E0004FEAC0204FEAC22208BF904200F09C8010
:1025F0004FEA13650FF24016765D4FEA134506FB6E
:1026000005F7C7F1807706FB07F74FEAD737A7FB37
:1026100003687642C8F58038A7FB06CE38BFA8F11C
:10262000010807FB08E64FF0000EA6FB028CE6FB54
:1026300003CEDCF1000CCEF1004E38BFAEF1010E3E
:10264000A6FB0C584FF000074FF00005E6FB0E8785
:10265000A1FB08C6A0FB07CE16EB0E0645F1000550
:10266000E1FB076515F1E04E7EBFA4F580345FEA1B
:1026700046066D4116F1800745F100054FEA172720
:102680004FEA066647EA0567A6F1DE46B6F1805FC7
:102690004FEA15251FD9384624F0010C05EBC4710B
:1026A000BCF1FE6F01EB0C1102D8F0BCBDE800815B
:1026B00024425CBF01F5801E9EEAC47F02D4F0BCB8
:1026C000BDE80081244238D4F0BCA1F1C041BDE88E
:1026D000004100F029BA4FEAD22242EA43524FEABF
:1026E000D323A7FB02864FEAD02040EA415007FBE4
:1026F00003661EEA0E0F4FEAD12105FB026658BFA2
:10270000A6EB0056B6EB00564FEA520E4EEAC37ED9
:1027100018EB0E0E56EB530EBDD518EB02085E41BA
:102720007F1C55F10005B6E74FF480154FF0000708
:102730004FF000064FF00008ADE7F0BC4FF000008E
:1027400001F1C04101F00041BDE8008111EA0C1F18
:102750000CEA131500D00CE013EA0C1F00F02580E2
:102760004FF00000F0BC81EA030101F00041BDE838
:102770000081F0BCBDE8004181EA030100F0D4B95A
:10278000F0BCBDE8004170B500F080F9097EFC3E68
:1027900000F007B881EA03014FF0000001F00041AA
:1027A000704781EA030100F0BFB9F0BCBDE8004109
:1027B0004FF0000021497047FFFDFBF9F7F5F4F2F7
:1027C000F0EEEDEBE9E8E6E4E3E1E0DEDDDBDAD8CC
:1027D000D7D5D4D3D1D0CFCDCCCBCAC8C7C6C5C42A
:1027E000C2C1C0BFBEBDBCBBBAB9B8B7B6B5B4B341
:1027F000B2B1B0AFAEADACABAAA9A8A8A7A6A5A42C
:10280000A3A3A2A1A09F9F9E9D9C9C9B9A999998EF
:102810009797969595949393929191908F8F8E8E92
:102820008D8C8C8B8B8A898988888787868585841F
:1028300084838382828181800000FF070000F87F0B
:102840004FEA1153A3F58063D3F11E03A8BFD3F160
:10285000200C08DB4FF0004242EAC12252EA5052FB
:1028600032FA03F0704709420BD4102BC4BF00208A
:10287000704703F5787CBCF1FF3F05D04FF0FF3087
:1028800070474FF00000704770B500F0FFF800BFD0
:102890004992248000207047F0E7B0FA80F310FAE4
:1028A00003F10AD0C3F11D0303F580634FEA4150E1
:1028B0004FEA035202EBD12170474FF000007047FE
:1028C00051EA030C17D41CF5801F58BFBCF5801FBC
:1028D00000F10680994218BF704708BF90427047C8
:1028E00007D711F5801F58BF13F5801F19D49942DF
:1028F0007047894270471CF5801F08D5BCF5801FC2
:10290000F7D58B4218BF704708BF824270474FF41B
:10291000001C1CEB410F38BF1CEB430F01D28B4254
:10292000704770B500F0B2F8922449004FF00051A2
:102930004FF08053FFF720BEDFF848C170B51CEAA6
:10294000111E1EBF1CEA13159EEA0C0F95EA0C0F10
:1029500000F06F8081EA030423EA4C134EEAD47E30
:1029600021EA4C1141F4801143F48013AE44A1FBE1
:10297000024CA0FB0365AEF17F7E361955EB0C05CA
:10298000A1FB034C4CF10003A0FB021C16EB0C0650
:10299000654153F10003094218BF46F0010613F4E4
:1029A000007F0BD14FEA03314FEA0530340341EA8F
:1029B000155140EA16506FF003020AE04FEAC321B6
:1029C0004FEAC520F40241EA555140EA56506FF0F3
:1029D000020202EB2E4201EB025585EACE710AD0CB
:1029E0005FEA440C18BF24F0004450F1000041F1AC
:1029F000000120EAD47040F2FE7C624500D270BD36
:102A0000A84214BF4FF080444FF04044002E08BF4E
:102A10000024BEF1806FA8BFA1F1C041BDE87040A5
:102A200080F282804FF0000001F1C04101F00041CE
:102A300070479EEA0C0F0CEA131518BF95EA0C0FAD
:102A400006D04FF0000081EA030E0EF0004170BD89
:102A500000F01CF88900013E00F007B800F009B84A
:102A60004FEA430C5FEA5C5C08D081EA030100F0A6
:102A70005BB84FEA410C5FEA5C5CF6D14FF00000B6
:102A8000014970470000FF070000F87F0EF1020EB9
:102A90002EF0030E5EF8046B364205D4012A43EB98
:102AA000030515F5001F12D8012841EB010C1CF598
:102AB000001F0CD80ED14FEAD17C15F5001F0CEB8E
:102AC0004C0C0CF1020C08BF4CEBD37C04E04FF033
:102AD000080C01E04FEAD37C0CEB4C0526FA05F616
:102AE00006F00706B6F1040C06D20EEB860CBDE824
:102AF00070404CF0010C6047DFE80CF0090B02025B
:102B00004FF000414FF00000A1F5002170BD1946C3
:102B10001046012851EB010418BFD4F5001484BFFE
:102B2000002001F0004170BD0808A0F500114FEA37
:102B30003101704753EA010C17D41CF5801F58BFB0
:102B4000BCF5801F00F106808B4218BF704708BF9C
:102B50008242704707D713F5801F58BF11F5801FB9
:102B600019D48B4270479B4270471CF5801F08D5D3
:102B7000BCF5801FF7D5994218BF704708BF904237
:102B800070474FF4001C1CEB430F38BF1CEB410F88
:102B900001D2994270470FB40CBC03BCFFF7C1BE11
:102BA00010B591EA030F48BF83F000433FF544ACF2
:102BB000841A71EB030C07D212198CF0004C43EB12
:102BC0000C03001B61EB0C01DFF8A4E14FEA115488
:102BD000A4EB135C1EEA430F18BF9EEA445F00F0AB
:102BE000B08023EA6E03524221EA0451C3EB6E0324
:102BF00038BF5B1EDCF1200E25D322FA0CFE10EB51
:102C00000E0043FA0CFE41EB0E01CCF1200E03FA4C
:102C10000EFE10EB0E0051F10001CCF1200E29D474
:102C200012FA0EF201EB0451BDE8104058BF704794
:102C3000401C1CBFB2F1004F704700280CBF491C5C
:102C400020F00100704712EB020E43EB030218BFA5
:102C50004FF0010E4EEA4202ACF1200CDCF11E0EE8
:102C600054D943FA0CFE10EB0E0051F1FF31CCF1B8
:102C70001E0ED5D50EF1010E12FA0EFE404141EBAB
:102C8000010101EB445C5FEA5C5C10D910EBDE7083
:102C900001EB045138BFBEF1004FBDE8104018BF32
:102CA000704700280CBF491C20F00100704730D24B
:102CB0004FEAD42C11F5001124F400641BD0B1FAB2
:102CC00081F20B3AA41AA41ED2F12003914030FAEB
:102CD00003F31943904001EBCC71002C01EB04513C
:102CE000BDE81040A8BF704701F1C0414FF000009F
:102CF00001F000417047B0FA80F310FA03F100D1FF
:102D000010BDE41A173C4805C90AE4E701EB045179
:102D100010BD491001EB0451BDE810404FEA3000EE
:102D200002E04FF0000170474A0008BF0042F8D0AF
:102D3000B2F5001F28BF704701F000414FF00000BE
:102D400070479EEA445F07D011EA5E0FBDE810406D
:102D500004BF002100207047BDE8104070B5FFF7A8
:102D600095FE00BF40DFF63E83F0004110467047FD
:102D70000000E0FF43004FEAD30C4FEA3C0C434015
:102D80001FBF40070CF1605113F0FE4F70471CF05D
:102D9000006F03D100200CF0004170470CF000439D
:102DA00043EA507010B540EACC0000F0B1F800BF23
:102DB000000000924FEA0001FFF7B6BE4FF000415D
:102DC0004FF00000A1F500217047000090EA010FCC
:102DD00048BF81F0004100F1EE80421A3CBF801AEA
:102DE00089184FEAD0524FF07F4C1CEA410FA2EBFA
:102DF000D15318BF9CEA026F00F03B804FF0004CAB
:102E00004CEA00204CEA012121FA03FC10EB0C0CE7
:102E10001ED202F1FF325FEA1C2040EBC25038BFE5
:102E200070471CF07F0F4FEA400C18BFBCF17F4F7A
:102E300038BF7047C3F12003994008BF20F001005C
:102E4000BCF17F4F38BF7047A0F1C04000F0A6B87A
:102E50004FEA3C00000A40EBC25028BF1CF0FF0FB5
:102E60004FEA400CE6D018BFBCF17F4F38BF704727
:102E7000EAE79CEA026F05D010EA5C0F08BF00F099
:102E80000040704710B500F043F800BF64FBBE3E41
:102E9000401058BFC0F14040491058BFC1F14041F7
:102EA0008142EFF30080704750EA010C00F113807B
:102EB0001CF5000F58BFBCF5000F01D488427047C5
:102EC00007D710F5000F58BF11F5000F15D4884231
:102ED0007047894270471CF5000F04D5BCF5000F00
:102EE000F7D5814270474FF0807C1CEB400F38BF14
:102EF0001CEB410F01D28142704710B500F008F879
:102F0000922449004FF000504FF08051FFF7C0BFAE
:102F10000EF1020E2EF0030E5EF8044B244204D490
:102F20004FEA4102B2F17F4F11D84FEA4003B3F1AB
:102F30007F4F0CD80ED14FEAD07CB2F17F4F0CEB13
:102F40004C0C0CF1020C08BF4CEBD17C04E04FF0B0
:102F5000080C01E04FEAD17C0CEB4C0324FA03F49B
:102F600004F00704B4F1040C06D20EEB840CBDE8A7
:102F700010404CF0010C6047DFE80CF0070802023B
:102F80004FF00040A0F5800010BD0846420018BF79
:102F9000D2F1807288BF00F0004010BDFF2141EAED
:102FA000D050C0057047000090EA010F48BF81F083
:102FB00000413FF512AF421A04D882F00042A0EB64
:102FC000020011444FEAD0524FF07F4C1CEA410FEF
:102FD000A2EBD15318BF9CEA026F4AD04FF0004CCD
:102FE0004CEA00204CEA012121FA03FCB0EB0C0C66
:102FF0000FD412F0FE0F36D05FEA4C001DD5001240
:1030000040EBC25038BF70471CF03F0F18BF7047ED
:103010000BE0A2F101025FEA1C2040EBC25038BF76
:1030200070471CF07F0F18BF7047C3F12003994011
:1030300014BF401E20F00100704780084FEA1223A1
:1030400008BF7047B0FA80FCA2EB0C02CCF1280C50
:1030500060FA0CF093EA122F04BF00EBC2507047E5
:103060004FEAC3707047130A5FEADC1008BF70476D
:10307000F6E79CEA026F04D010EA5C0F08BF00205C
:10308000704710B5FFF744FF40DFF63E81F0004087
:1030900070470000C030000800000020F40000006D
:1030A00028010008B4310008F4000020FC070000EB
:1030B00044010008E1ECFFFFCDECFFFFB9ECFFFF9E
:1030C0000100020004000800100020004000800001
:1030D00001000200000000000000000000000000ED
:1030E000000000000000000000000000000000419F
:1030F000542B43574D4F44453D320D0A41542B4309
:10310000575341503D22465A4A222C223132333401
:10311000353637383930222C352C330D0A41542BB3
:103120004349504D55583D310D0A41542B434950A8
:1031300041503D223139322E3136382E312E312256
:103140000D0A41542B4349505345525645523D3187
:103150002C383038300D0A41542B43495053454EDA
:10316000443D302C32300D0A415445300D0A0000E8
:10317000000000000000000000000000000000004F
:10318000000000000000000000000000000000003F
:10319000000000000000000000000000000000002F
:1031A00000000000010203040102030406070809ED
:0431B0000204060807
:04000005080000ED02
:00000001FF
