:020000040800F2
:10000000180C002099010008A1010008A3010008B4
:10001000A5010008A7010008A901000800000000D0
:10002000000000000000000000000000AB0100081C
:10003000AD01000800000000AF010008310A00080F
:10004000B3010008B3010008B3010008B3010008C0
:10005000B3010008B3010008B3010008B3010008B0
:10006000B3010008B3010008B3010008B3010008A0
:10007000CD040008B3010008E5040008B30100083E
:10008000B3010008FD040008B3010008B301000833
:10009000B3010008B3010008B3010008B301000870
:1000A000B3010008B3010008B3010008B301000860
:1000B000B3010008B3010008B3010008B301000850
:1000C000B3010008B3010008B3010008B301000840
:1000D000B3010008B10A0008C90A0008E10A0008D3
:1000E000B3010008B3010008B301000800F002F8F2
:1000F00000F043F80AA090E8000C82448344AAF17F
:100100000107DA4501D100F038F8AFF2090EBAE87C
:100110000F0013F0010F18BFFB1A43F0010318473B
:100120005827000078270000103A24BF78C878C10B
:10013000FAD8520724BF30C830C144BF04680C60ED
:10014000704700000023002400250026103A28BF35
:1001500078C1FBD8520728BF30C148BF0B60704739
:100160001FB59DE8030000F0B3F800F04BF81FBD89
:1001700010B5002001F08BFD10BD00F006F911460E
:10018000FFF7EEFF01F00CFE00F03EF903B4FFF7BD
:10019000EFFF03BC00F074F90948804709480047A5
:1001A000FEE7FEE7FEE7FEE7FEE7FEE7FEE7FEE727
:1001B000FEE7FEE704480549054A064B7047000084
:1001C000510A0008ED00000818060020180C002055
:1001D000180800201808002030B505460B462A46AE
:1001E00013F8014B12F8010B08B1A042F8D01CB172
:1001F000002802D06D1CF1E7284630BD70477047DB
:100200007047000070B5064C7C44064D7D4403E009
:10021000206820448047241DAC42F9D170BD000005
:100220008C2600009426000000487047EC05002052
:1002300070B5064600F030F8056806F10B0020F0B6
:100240000704B4429CBF002070BD2B466A68BAB157
:100250001068A04210D304F1080188423CBF5068E6
:10026000586007D35168101941601168091B01607B
:1002700058601460101D70BD13465268002AE7D103
:100280002146284600F010F80028DED170BD00009D
:1002900000487047B405002000487047BC050020A6
:1002A000704770477047704738B504460A460020CB
:1002B0006946AFF30080002808BF38BD02460099A8
:1002C000204600F087F8012038BD012000F0A2B8D8
:1002D000F8B5AFF30080054600200C46102000BFA3
:1002E0000646A819A0420DD9324669460020AFF350
:1002F0000080070008BF00F08DF80098A04218BFEA
:100300000546C419FFF7C8FF05600746F01D20F039
:1003100007004619284600F00AF8B44208BFF8BDA5
:10032000A21B31463868BDE8F84000F053B8002100
:100330000160C0E9011070471020704770B5044695
:10034000051FFFF7A9FF0068002C14BF446870BDAB
:10035000002C18BFAC423CBF20466468F8D301684B
:100360000A18AA4218BF456003D12A6805461144FD
:10037000016028684119A1421CBF6C6070BD6168B2
:10038000696021680844286070BD7546FFF780FFEA
:10039000AE4605006946534620F00700854618B072
:1003A00020B5FFF707FFBDE820404FF000064FF0F3
:1003B00000074FF000084FF0000B21F00701AC469A
:1003C000ACE8C009ACE8C009ACE8C009ACE8C009B9
:1003D0008D467047034640688C46002818BF884207
:1003E0003CBF03464068F8D318681844884207D0D9
:1003F0000CF1030020F00700001D411A521A0146BB
:10040000081D0A60FFF79ABF0446AFF3008020463C
:10041000FFF7BCFE10B500F00BF8BDE8104000F08F
:1004200001B87047002801D000F02AB870470000DA
:1004300010B5012805D0002103A000F027F8012005
:1004400010BD09A1F8E7000053494752544D454DEE
:100450003A204F7574206F662068656170206D6565
:100460006D6F7279000000003A2048656170206D60
:10047000656D6F727920636F727275707465640058
:1004800001491820ABBEFEE72600020070B5054604
:100490000C460A2000E06D1C00F011F835B12878F8
:1004A0000028F8D102E0641C00F009F814B12078AB
:1004B0000028F8D1BDE870400A20AFF3008008B5ED
:1004C00069468DF800000320ABBE08BD10B5044896
:1004D000006818B10248006800F0EAFD10BD000095
:1004E0000C00002010B50448006818B102480068EC
:1004F00000F0DEFD10BD00000400002010B504482F
:10050000006818B10248006800F0D2FD10BD00007C
:100510000800002000F0805111B10349086001E09B
:100520000249486070470000040402400000024095
:1005300000F0805111B10349086001E002494860B0
:1005400070470000040402400000024021B102682C
:1005500042F00102026004E002684FF6FE731A40A6
:100560000260704701460020002201F0805313B161
:10057000054B1A6801E0054B1A6802EA01030BB14A
:10058000012000E00020704700040240000002400B
:1005900010B50022026847F6F0739A430C6A8B6824
:1005A00023430C6923434C6923438C692343CC695F
:1005B00023434C6A23438C6A23431A430260CB686B
:1005C00043600B6883604B68C36010BD2DE9F04148
:1005D000024600250026002000230024002791F871
:1005E00003C00CF00F0591F803C00CF0100CBCF127
:1005F000000F03D091F802C04CEA050591F800C045
:10060000BCF1000F31D0146800202BE04FF0010C3A
:100610000CFA00F3B1F800C00CEA03069E4220D1A8
:1006200083004FF00F0C0CFA03F7BC4305FA03FCF0
:100630004CEA040491F803C0BCF1280F06D14FF036
:10064000010C0CFA00FCC2F814C00AE091F803C0D7
:10065000BCF1480F05D14FF0010C0CFA00FCC2F8B8
:1006600010C0401C0828D1D31460B1F800C0BCF100
:10067000FF0F34DD546800202EE000F1080C4FF02D
:10068000010808FA0CF3B1F800C00CEA03069E4218
:1006900021D183004FF00F0C0CFA03F7BC4305FA8D
:1006A00003FC4CEA040491F803C0BCF1280F05D107
:1006B00000F1080C08FA0CF8C2F8148091F803C095
:1006C000BCF1480F07D100F1080C4FF0010808FAFF
:1006D0000CF8C2F81080401C0828CED35460BDE846
:1006E000F0810000F0B50A46002300240021002517
:1006F00000F00046B6F1004F02D11D4EF16901E055
:100700001B4E7168C0F3034583B200F44016B6F582
:10071000401F08D121F07061154E766826F0706692
:10072000134F7E6012E000F48016B6F5801F06D1EC
:10073000032606FA05F4A14341F0706106E0460D78
:10074000360103FA06F6B14341F0706122B1460D5D
:10075000360103FA06F6314300F00046B6F1004FC9
:1007600002D1034EF16101E0014E7160F0BD000065
:10077000000001400246002093680B400BB10120AD
:1007800000E0002070474161704701617047000040
:1007900070B5002100230F22C47804B3154C2468DF
:1007A00004F4E064C4F5E064210AC1F10403CA4022
:1007B000447804FA03F184781440214309010E4C73
:1007C0000678A155047804F01F050124AC40057893
:1007D0006D11AD0005F1E025C5F8004109E0047890
:1007E00004F01F050124AC40044D0678761145F84D
:1007F000264070BD0CED00E000E400E080E100E088
:1008000002490143024A1160704700000000FA05E6
:100810000CED00E029B1064A52690243044B5A61CB
:1008200004E0034A52698243014B5A617047000059
:100830000010024029B1064AD2690243044BDA6132
:1008400004E0034AD2698243014BDA617047000039
:100850000010024029B1064A92690243044B9A6192
:1008600004E0034A92698243014B9A617047000099
:100870000010024030B500210022002400232D4D3D
:100880006D6805F00C0121B1042905D0082923D198
:1008900005E0294D056022E0274D05601FE0254D4C
:1008A0006D6805F47012234D6D6805F480340225DF
:1008B00005EB92421CB9214D554305600BE01D4DDF
:1008C0006D6805F400351DB11C4D5543056002E00F
:1008D000194D5543056002E0174D056000BF00BF8C
:1008E000144D6D6805F0F0010909154D6B5C056844
:1008F000DD4045600F4D6D6805F4E061090A104D5B
:100900006B5C4568DD4085600A4D6D6805F460519B
:10091000C90A0B4D6B5C4568DD40C560054D6D68CF
:1009200005F44041890B074D6B5CC568B5FBF3F5D9
:10093000056130BD0010024000127A0000093D0040
:10094000300000204000002010B500F001F810BD7C
:100950000CB50020019000903348006840F48030CE
:100960003149086000BF3048006800F40030009052
:100970000198401C0190009818B90198B0F5A06F3B
:10098000F1D12948006800F4003010B10120009036
:1009900001E0002000900098012843D1234800681E
:1009A00040F01000214908600846006820F003006C
:1009B00008600846006840F0020008601A48406875
:1009C000194948600846406848600846406840F455
:1009D000806048600846406820F47C104860084603
:1009E000406840F4E81048600846006840F08070B5
:1009F000086000BF0C48006800F000700028F9D0C3
:100A00000948406820F003000749486008464068EC
:100A100040F00200486000BF0348406800F00C004E
:100A20000828F9D10CBD000000100240002002404F
:100A300010B5044A044B054903C901F0CBFA034A37
:100A400003C210BDCDCCCCCCCCCCFC3F28000020C8
:100A500010B51348006840F00100114908600846CD
:100A60004068104908400E494860084600680E4931
:100A700008400B4908600846006820F480200860A0
:100A80000846406820F4FE0048604FF41F0088606C
:100A9000FFF75AFF4FF000600449086010BD0000E6
:100AA000001002400000FFF8FFFFF6FE08ED00E036
:100AB00010B50448006818B10248006800F090FAC8
:100AC00010BD00000400002010B50448006818B1F3
:100AD0000248006800F084FA10BD00000800002001
:100AE00010B50448006818B10248006800F078FAB0
:100AF00010BD00000C00002010B50022002340F6BD
:100B00006A14A14200D100BF0A1201249440A3B28A
:100B1000DC43048010BD21B1828942F400528281FD
:100B200004E082894DF6FF731A40828170471AB142
:100B3000838A0B43838202E0838A8B4383827047DC
:100B400002460020B1F5007F00D100BF13880B40A2
:100B50000BB1012000E00020704770B50246002470
:100B600000230025002040F66A16B14200D100BFE4
:100B7000C1F3421501F01F03012606FA03F3012D0C
:100B800002D19689334006E0022D02D1168A334005
:100B900001E0968A33400C12012606FA04F4168806
:100BA000344013B10CB1012000E0002070BDF0B55D
:100BB0000346002400260025002040F66A17B942AB
:100BC00000D100BF1846C1F3421401F01F060127EF
:100BD00007FA06F5012C01D10C3004E0022C01D1FA
:100BE000103000E014301AB107682F43076002E0AC
:100BF0000768AF430760F0BD2DE9F04786B00546B2
:100C00000E460024A24600BFA1460027B08900B1CD
:100C100000BF2F462C8A4CF6FF700440F088044336
:100C20002C82AC894EF6F3100440B0883189084319
:100C3000718908430443AC81AC8A4FF6FF400440FD
:100C4000B0890443AC8201A8FFF714FE1F48874215
:100C500002D1DDF810A001E0DDF80CA0A88900F4B5
:100C6000004040B10AEBCA0000EB0A1031684900AD
:100C7000B0FBF1F807E00AEBCA0000EB0A1031689C
:100C80008900B0FBF1F86420B8FBF0F00401200902
:100C9000642101FB1089A88900F4004040B1322092
:100CA00000EBC900B0FBF1F000F00700044308E0DE
:100CB000322000EB09106421B0FBF1F000F00F00CE
:100CC00004432C8106B0BDE8F087000000380140E5
:100CD00001468888C0F308007047C1F3080282808B
:100CE000704700002DE9F0474FF0E021886901F0DE
:100CF0007DFB06460022174B01F020FA04460D4604
:100D0000154A164B164903C901F064F9804622467C
:100D10002B4601F045FC134A03C2134811490CC885
:100D200003C901F03DFC0446104A114B01F002FCDE
:100D300007D2094A094B0B4903C901F031FC094AA2
:100D400003C2084903C9084A03C2064903C9BDE8EA
:100D5000F0870000882A6141CDCCCCCCCCCCFC3FC4
:100D600028000020180000202000002062105839C0
:100D7000B4C8FC3F2DE9FC5F83460C46FFF7B2FF89
:100D800005460E4600BF204601F030FB0746002214
:100D90000A4B01F0D3F981468A46FFF7A3FF0746C5
:100DA0002A46334601F0FCFB4A465346CDE9000192
:100DB00001F030FBE7D3BDE8FC9F000000408F400E
:100DC0002DE9FC5F83460C46FFF78CFF05460E4677
:100DD00000BF204601F00AFB074600220A4B01F043
:100DE000ADF981468A46FFF77DFF07462A4633461E
:100DF00001F0D6FB4A465346CDE9000101F00AFB5B
:100E0000E7D3BDE8FC9F000080842E414FF0E02135
:100E1000096921F004014FF0E02211610349516199
:100E20001146096941F00301116170474031F70033
:100E300070B50C46FF210170CC21417000218170FA
:100E4000C1700171012141718171C47102724372DB
:100E5000002104E0C57C465C3544C574491C132957
:100E6000F8DB70BD70B50C46FF210170CC214170DC
:100E700000218170C17001710121417102218171D4
:100E8000C47102724372002104E0C57C465C3544A3
:100E9000C574491C1329F8DB70BD0146002006E02B
:100EA000002301F11402135400220A54401C142898
:100EB000F6DB08467047000010B504461F4960681D
:100EC000884204D101210420FFF7C4FC34E01C490E
:100ED0006068884204D101210820FFF7BBFC2BE0A9
:100EE00018496068884204D101211020FFF7B2FC44
:100EF00022E015496068884204D101212020FFF7D3
:100F0000A9FC19E011496068884204D10121402000
:100F1000FFF7A0FC10E00E496068884204D101216F
:100F20008020FFF797FC07E00A496068884203D1F8
:100F300001218015FFF78EFC10BD00000008014064
:100F4000000C014000100140001401400018014055
:100F5000001C0140002001402DE9F84304460F46E3
:100F600015461E46DDF82080267084F801806760F3
:100F700025812046FFF7A0FF074830F81500ADF89F
:100F800000008DF802808DF8036069466068FFF705
:100F90001DFB2046BDE8F8835628000870B50446BE
:100FA0000E46154604F13A0001F004F8A84201DAB1
:100FB000002070BD2A46314604F13A0000F0BAFF25
:100FC0000120F6E710B5044604F13A0000F0F2FF04
:100FD00010BD10B5044604F13A0000F0EEFF10BD5C
:100FE00038B5044640F22551D4F88C00FFF7B5FD22
:100FF00088B1D4F88C00FFF76BFEC0B26946009050
:1010000004F13A0000F07CFF40F22551D4F88C0046
:10101000FFF772FD00BF40F22771D4F88C00FFF794
:101020009CFDE0B1204600F0C5FF002809DD1E4907
:10103000204600F04DFF1C490978D4F88C00FFF7DA
:101040004CFE204600F0B6FF48B9002240F227715E
:10105000D4F88C00FFF7ABFD002084F8980040F234
:101060002661D4F88C00FFF778FDE0B1204600F04F
:10107000A1FF002809DD0D49204600F029FF0B499A
:101080000978D4F88C00FFF728FE204600F092FF84
:1010900048B9002240F22661D4F88C00FFF787FDA2
:1010A000002084F8980038BD0100002002000020D4
:1010B00070B50446D4F89000FFF754FA012839D1EE
:1010C0008834E068FFF734FAA068FFF723FA54F891
:1010D00088090021FFF73AFA204600F06BFF00284C
:1010E00025DD204600F066FF142810DC204600F0C5
:1010F00061FFD4F888104860204600F05BFF054689
:101100002A4604F17401204600F014FF09E014207F
:10111000D4F888104860142204F17401204600F0CD
:1011200009FF0121D4F88800FFF710FA02E000203F
:1011300084F8980070BD00002DE9F04104460E4689
:101140001546AAB23146204600F013FF94F89900E4
:1011500078B394F8980060BB204600F02BFF00287D
:1011600027DD012084F89800204600F023FF142892
:1011700010DC204600F01EFFD4F88810486020469E
:1011800000F018FF07463A4604F17401204600F0CB
:10119000D1FE09E01420D4F888104860142204F12C
:1011A0007401204600F0C6FE0121D4F88800FFF744
:1011B000CDF994F8990020BB94F8980008BB20461C
:1011C00000F0F8FE00281CDD54F88C0F40F2266178
:1011D000FFF792FC012240F226612068FFF7E7FC4E
:1011E00040212068FFF7ACFC012020738C3C0649AD
:1011F000204600F06DFE04490978D4F88C00FFF712
:101200006CFD0120BDE8F081000000202DE9F04FC9
:1012100093B004460E4692469B461C9F204600F023
:10122000D1FE044604F13A0000F0CCFEA0F13A04ED
:10123000002084F8980084F899B0032084F89A007C
:1012400018208DF84B0003208DF84A008DF84600D9
:1012500004208DF84700012E34D1C648C4F88C0014
:101260004FF0250894F8990048B1C34844F8880F16
:101270004FF00E097003A0604010E060883CBF484A
:101280000460012F10D1012144F20900FFF7E2FAB6
:1012900001210420FFF726FA4020ADF84800802005
:1012A000ADF84400B64D9FE0012144F20500FFF780
:1012B000D1FA4FF40070ADF848004000ADF844009A
:1012C000B04D91E0022E3AD1AF48C4F88C004FF0F7
:1012D000260894F8990050B1A7483C3044F8880F8C
:1012E0004FF011098004A0604010E060883CA748DE
:1012F0000460012F13D101214804FFF79BFA01215B
:101300002120FFF7A7FA01210820FFF7EBF92020A1
:10131000ADF848004020ADF844009D4D64E0012147
:101320004804FFF787FA01210520FFF793FA04200C
:10133000ADF848000820ADF84400924D54E0032E6B
:1013400052D19448C4F88C004FF0270894F89900C3
:1013500050B18948283844F8880F4FF00C092020F4
:10136000A0601020E060883C8B480460012F13D1FE
:1013700001218804FFF75EFA01211120FFF76AFAC4
:1013800001218648FFF7AEF9B802ADF848004000E9
:10139000ADF84400824D27E0112F15D101218804BA
:1013A000FFF748FA01212120FFF754FA01217B4879
:1013B0002030FFF797F94FF48070ADF848004000F7
:1013C000ADF84400724D0FE001218804FFF732FAB6
:1013D00001210920FFF73EFA4FF48060ADF8480084
:1013E0004000ADF84400664D12A92846FFF7EEF81C
:1013F00011A92846FFF7EAF8CDF834A02298ADF8F5
:1014000038002398ADF83A002198ADF83C00002050
:10141000ADF840000C20ADF83E0054F88C0F0DA93B
:10142000FFF7EAFB01212068FFF775FB607B8C3C2E
:1014300000283FD001228021D4F88C00FFF777FBF1
:1014400001210846FFF7E6F9D4F88C00001D019051
:1014500004F1740002901020039000200490059085
:10146000802006900020079008900990209820B1D5
:10147000012806D002280CD107E04FF440500A9012
:101480000AE04FF400500A9006E04FF480500A90B2
:1014900002E000200A9000BF00BF00200B9001A9CD
:1014A000D4F88800FFF774F80021D4F88800FFF71B
:1014B0004DF806E0002240F22661D4F88C00FFF7D8
:1014C00076FB1D9830B1012809D002280CD00428E1
:1014D0000FD113E04FF4E060FFF792F913E04FF4FF
:1014E000C060FFF78DF90EE04FF4A060FFF788F9B8
:1014F00009E04FF48060FFF783F904E04FF4407097
:10150000FFF77EF900BF00BF8DF830801E988DF880
:1015100031001F988DF8320001208DF833000CA89F
:10152000FFF736F9012240F22551D4F88C00FFF77D
:101530003EFB94F89900C0B18DF830901E988DF85C
:1015400031001F988DF832000CA8FFF721F954F8EC
:10155000880F006840F00200216808602068006879
:1015600040F0080054F888190860204613B0BDE820
:10157000F08F0000003801404400024004000020C9
:10158000000C014000080140004400400800002019
:1015900000140140004800400C000020100014001E
:1015A000001001400D4AD0F88C10914203D1002167
:1015B0000B4A116010E00B4AD0F88C10914203D115
:1015C0000021094A116007E0084AD0F88C109142C6
:1015D00002D10021064A1160704700000038014026
:1015E00004000020004400400800002000480040A3
:1015F0000C00002070B506460C460025002001E0D6
:101600006D1C401C215C0029FAD12A462146304637
:10161000FFF792FD304670BD13B50446012201A9C3
:101620002046FFF789FD20461CBDFEB506460C4648
:1016300000270025002C01DA0127644200BF681C46
:10164000C5B20A2094FBF0F100FB11403030C0B26B
:10165000C5F10A010DF801000A2094FBF0F4002CFA
:10166000EDD1012F07D12D21681CC0B20546C0F174
:101670000A000DF800100DF10A00411B2A46304601
:10168000FFF75AFD3046FEBD10B50446204600F077
:1016900041F810211448FFF776F812211348FFF79C
:1016A00069FB10211048FFF770F819210F48FFF768
:1016B00087FB204600F01CF810210B48FFF75AF872
:1016C00078B900BF10210848FFF754F80028F9D076
:1016D00000BF10210448FFF74DF80128F9D0012080
:1016E00010BD0020FCE700000008014010000020B1
:1016F00038B504461020ADF8000003208DF8020034
:1017000004208DF8030069460148FEF75FFF38BDED
:101710000008014038B504461020ADF80000032051
:101720008DF8020010208DF8030069460148FEF78D
:101730004DFF38BD0008014070B50446002527E084
:1017400020784006000E207014211348FFF738FB64
:1017500000BF10211148FFF70DF80028F9D01A2119
:101760000D48FFF72DFB10210C48FFF703F8012867
:1017700008D1207840F00100207028210648FFF7AA
:101780001FFB03E0207800F0FE002070681CC5B24B
:10179000082DD5DB207870BD100000200008014026
:1017A0002DE9F05F04462046FFF76EFFD8B12046D2
:1017B000FFF7C2FF20722046FFF7BEFF607220468F
:1017C000FFF7BAFFA0722046FFF7B6FFE07220468F
:1017D000FFF7B2FF6070217A607A0144A07A014479
:1017E000E07A0844C7B26078B8422AD1607A217A98
:1017F00040EA01250A2095FBF0F100FB115000F0B2
:10180000FF090A2095FBF0F000F0FF08E17AA07ACA
:1018100041EA00260A2096FBF0F000F0FF0A0A20B9
:1018200096FBF0F100FB116000F0FF0B84F80C80D8
:1018300084F80D9084F80EA084F80FB00120BDE864
:10184000F09F0020FBE70000014941607047000065
:10185000CDCCCC3D2DE9F04F85B004468B4691466A
:101860009A46FFF73FFA05460E4623E010E00122B4
:1018700004A92068FFF792FB9DF8100000B907E06B
:101880009DF8100003A90390201D00F0F7FA00BF97
:101890002068FFF797FB0028E9DC594604F10C00AB
:1018A00000F0D4F928B9494604F10C0000F0CEF953
:1018B00000B112E0504600F05DFFCDE90201FFF7F4
:1018C00011FA07462A46334600F06AFECDE90001C8
:1018D000DDE9022300F09EFDC8D300BF201D00F00B
:1018E000E7FA002806DD002003A90390201D00F080
:1018F000C5FA00BF04F10C0005B0BDE8F08F2DE97A
:10190000F74F84B082469346FFF7ECF9804689464C
:1019100020E012E0012202A9DAF80000FFF73EFB06
:101920009DF8080000B908E09DF8080001A90190A1
:101930000AF1040000F0A2FA00BFDAF80000FFF795
:1019400041FB0028E6DC0AF10C00059900F07EF965
:1019500000B112E0584600F00DFF04460D46FFF7B7
:10196000C1F942464B46CDE9000100F019FE06469A
:1019700022462B4600F04EFDCBD300BF0AF10400F7
:1019800000F096FA002807DD002001A901900AF175
:10199000040000F073FA00BF0AF10C0007B0BDE8C4
:1019A000F08F00002DE9F04F87B004460F46154632
:1019B0001E46DDF84080204600F025F91CA1206875
:1019C000FFF718FE39462068FFF72FFE1CA1019093
:1019D000FFF710FE1BA10290FFF70CFE29460390B3
:1019E000FFF708FE18A10490FFF704FE8346314676
:1019F000FFF700FE824615A1FFF7FCFD8146414638
:101A0000FFF713FE12A10590FFF7F4FD114B12A290
:101A100013A12046FFF71EFF069011A1069800F0C3
:101A200015F918B1012007B0BDE8F08F0020FAE7E2
:101A300041542B43495053544152543D000000003F
:101A40002C00000022000000222C2200222C00008A
:101A50000D0A0000000040404552524F5200000065
:101A60004F4B000070B50446204600F0CCF80CA1A6
:101A70002068FFF7BFFD06460CA1FFF7BBFD0C4B2E
:101A80000CA20EA12046FFF7E5FE05460BA1284655
:101A900000F0DCF808B1012070BD0020FCE7000078
:101AA00041542B43574D4F44453D31000D0A000032
:101AB000000040404552524F520000004F4B000082
:101AC0002DE9F04104460D46204600F09CF80EA199
:101AD0002068FFF78FFD80462946FFF7A6FD0646E2
:101AE0000CA1FFF787FD0C4B0CA20EA12046FFF7BF
:101AF000B1FE07460BA1384600F0A8F810B101204E
:101B0000BDE8F0810020FBE741542B4349504D557F
:101B1000583D00000D0A0000000040404552524F61
:101B2000520000004F4B00002DE9F04704460D46DF
:101B300016461F4605F13000C5B2204600F063F896
:101B40000FA12068FFF756FD29462068FFF764FDC6
:101B500082460EA1FFF74EFD81463146FFF765FD37
:101B600080460BA1FFF746FD64210A48FFF702F902
:101B7000324639462068FFF7DFFABDE8F0870000FB
:101B800041542B43495053454E443D002C00000026
:101B90000D0A0000100000202DE9F04104460D461A
:101BA000204600F030F809A12068FFF723FD074622
:101BB0002946FFF73AFD064605A1FFF71BFD054A3A
:101BC00005A1204600F00AF8BDE8F0814154450027
:101BD0000D0A0000000040404F4B00002DE9F0418D
:101BE00004460D461646324629462046FFF787FE34
:101BF00007462946384600F029F810B10120BDE813
:101C0000F0810020FBE770B504462068FFF7E1F99A
:101C1000002505E0002104F10C004155681C85B247
:101C2000201D00F045F9A842F4DC201D00F043F926
:101C300070BD70B504460D462560201D00F040F9CA
:101C4000041F2046FFF7DFFF204670BD70B5044635
:101C50000D4629462046FEF7BFFA70BD2DE9F0413A
:101C6000074690460E4600251020FEF7E1FA0400D4
:101C70000BD0C4F80C80C4E90176FEF7D5FA0168F0
:101C8000216004602846BDE8F0810125FAE72DE9CE
:101C9000F0410646FEF7C8FA804613E026B1E06838
:101CA000B04201D025460EE020682860D4E9010149
:101CB000D8F8007088472046FEF740FBD8F80000AF
:101CC000B84200D045462C68002CE7D1BDE8F08131
:101CD00000B50248FFF79AF800BD00001000002090
:101CE00000B50248FFF7D9F800BD00008C050020C0
:101CF00010B588B000200323CDE90430069007908A
:101D0000012007211A460023CDE90032CDE9021057
:101D100003464FF4E13201461948FFF777FA0446CB
:101D2000184A1949FFF79AFF00200323CDE9043030
:101D300006900790012007211A460023CDE90032C2
:101D4000CDE9021003464FF4E13203210F48FFF7BB
:101D50005DFA04460B4A0C49FFF780FF032010236D
:101D60000B220B4900900B48FFF7F6F80A48FFF7E3
:101D70006BFD06490948FFF75CFF08B010BD000085
:101D80004400002000000008A5150008E000002025
:101D9000000801407C0100208801002098010020FB
:101DA00008B54FF47A712C48FEF7E4FF01212B4867
:101DB000FFF7F2FE4FF47A712748FEF7DBFF274862
:101DC000FFF750FE4FF47A712348FEF7D3FF4FF42C
:101DD0007A712148FEF7CEFF01212048FFF770FEFF
:101DE0004FF47A711C48FEF7C5FF41F690701CA3B2
:101DF0001FA2002100901948FFF7D4FD4FF47A711B
:101E00001548FEF7B7FF25E01A48FFF7C9FC01287F
:101E100020D11848C27B817B00231748FFF722F8A6
:101E200004462346142200210C48FFF77DFE11488A
:101E3000427B017B00231048FEF7FAFF044623464D
:101E4000142200210548FFF76FFE4FF47A71024813
:101E5000FEF790FFD8E70000100000209801002056
:101E60003139322E3136382E3139312E31000000E1
:101E700054435000880100208C05002010B5024614
:101E800050881388984201DB002010BD0B78D4885D
:101E9000601CD08002F108000355D0881388984256
:101EA00001DB0020D0805088401C50800120ECE7EE
:101EB000014648887047002141808180C180704779
:101EC0004FF47A710180002141808180C180704788
:101ED00002465088002801DC002070479388581C77
:101EE000908002F10800C05C0870908813889842C6
:101EF00001DB002090805088401E50800120ECE7DC
:101F000010B5024650881388984201DB002010BDAE
:101F10000B78D488601CD08002F108000355D0886B
:101F20001388984201DB0020D0805088401C5080EC
:101F30000120ECE730B503465888904201DA0020D2
:101F400030BD00200EE09D886C1C9C8003F10804CD
:101F5000645D0C549C881D88AC4201DB00249C808D
:101F6000441CA0B29042EEDB5888801A58800120B1
:101F7000E6E770B50346588810441C88A04201DD8E
:101F8000002070BD00200EE00D5CDE88741CDC803B
:101F900003F10804A555DC881D88AC4201DB002450
:101FA000DC80441CA0B29042EEDB5888104458807C
:101FB0000120E6E701464888704700214180818082
:101FC000C180704732210180002141808180C18021
:101FD0007047000010B591EA030F48BF83F000433B
:101FE00000F1E682841A71EB030C05D2121943EB5F
:101FF0000C03001B61EB0C01DFF824E14FEA1154E4
:10200000A4EB135C1EEA430F18BF9EEA445F73D033
:1020100023EA0E03DCF1200E21EA045143F480137D
:1020200032D322FA0CFE10EB0E0023FA0CFE41EB29
:102030000E01CCF1200E03FA0EFE10EB0E0051F152
:102040000001B1F5801FCCF1200E32D201EB04511A
:1020500012FA0EF2BDE8104058BF7047401C38BF5E
:102060005FEA420218BF7047002814BF20F0010049
:1020700041F100014FEA410313F5001F38BF7047DB
:10208000A1F1C04100F050BA012A43EB0302ACF1C8
:10209000200CDCF11F0E32BF4FF0000E23FA0CF3C0
:1020A00010EB030041EB0451B4EB115FD0D0A1EB76
:1020B000045101F5801149085FEA300001EB045139
:1020C0000ED350F1000038BF12FA0EFE08D1BDE861
:1020D0001040C9E7401C38BF5FEA4202CAD1C3E7DB
:1020E000BDE810404FEA410313F5001F38BF7047A9
:1020F000A1F1C04100F018BA9EEA445F08D011EA8D
:102100005E0FBDE8104004BF01F0004100207047A1
:10211000BDE8104070B500F0B9F900BF64FBBE3EE9
:102120000000E0FF491058BFC1F140415B1058BFAB
:10213000C3F140438B42EFF3008070472DE9C0416B
:1021400030B4DFF8A0C23CEA111418BF3CEA131403
:1021500000F0EC8081EA03051CEA111444EAD5740E
:1021600018BF1CEA131500F0C780A4EB05044FF05C
:10217000004545EAC12145EAC32341EA505143EAFB
:10218000525304F17F74994204F500344FEAC020A1
:102190004FEAC22208BF904200F09C804FEA1365CC
:1021A0000FF24016765D4FEA134506FB05F7C7F1BF
:1021B000807706FB07F74FEAD737A7FB036876421D
:1021C000C8F58038A7FB06CE38BFA8F1010807FB89
:1021D00008E64FF0000EA6FB028CE6FB03CEDCF116
:1021E000000CCEF1004E38BFAEF1010EA6FB0C582C
:1021F0004FF000074FF00005E6FB0E87A1FB08C675
:10220000A0FB07CE16EB0E0645F10005E1FB0765C6
:1022100015F1E04E7EBFA4F580345FEA46066D41BD
:1022200016F1800745F100054FEA17274FEA0666C9
:1022300047EA0567A6F1DE46B6F1805F4FEA15254D
:102240001FD9384624F0010C05EBC471BCF1FE6FB8
:1022500001EB0C1102D8F0BCBDE8008124425CBF48
:1022600001F5801E9EEAC47F02D4F0BCBDE8008167
:10227000244238D4F0BCA1F1C041BDE8004100F0D7
:1022800053B94FEAD22242EA43524FEAD323A7FB83
:1022900002864FEAD02040EA415007FB03661EEA5F
:1022A0000E0F4FEAD12105FB026658BFA6EB005680
:1022B000B6EB00564FEA520E4EEAC37E18EB0E0EF6
:1022C00056EB530EBDD518EB02085E417F1C55F14D
:1022D0000005B6E74FF480154FF000074FF00006F9
:1022E0004FF00008ADE7F0BC4FF0000001F1C04135
:1022F00001F00041BDE8008111EA0C1F0CEA131542
:1023000000D00CE013EA0C1F00F025804FF0000015
:10231000F0BC81EA030101F00041BDE80081F0BC9E
:10232000BDE8004181EA030100F0FEB8F0BCBDE861
:10233000004170B500F0AAF8097EFC3E00F007B835
:1023400081EA03014FF0000001F00041704781EA8B
:10235000030100F0E9B8F0BCBDE800414FF0000017
:1023600021497047FFFDFBF9F7F5F4F2F0EEEDEBD4
:10237000E9E8E6E4E3E1E0DEDDDBDAD8D7D5D4D383
:10238000D1D0CFCDCCCBCAC8C7C6C5C4C2C1C0BFCF
:10239000BEBDBCBBBAB9B8B7B6B5B4B3B2B1B0AFD5
:1023A000AEADACABAAA9A8A8A7A6A5A4A3A3A2A1B9
:1023B000A09F9F9E9D9C9C9B9A9999989797969574
:1023C00095949393929191908F8F8E8E8D8C8C8B10
:1023D0008B8A898988888787868585848483838298
:1023E000828181800000FF070000F87FB0FA80F34F
:1023F00010FA03F10AD0C3F11D0303F580634FEA1D
:1024000041504FEA035202EBD12170474FF00000D8
:102410007047000051EA030C17D41CF5801F58BF09
:10242000BCF5801F00F10680994218BF704708BFB5
:102430009042704707D711F5801F58BF13F5801FD2
:1024400019D499427047894270471CF5801F08D5FE
:10245000BCF5801FF7D58B4218BF704708BF82427A
:1024600070474FF4001C1CEB410F38BF1CEB430FAF
:1024700001D28B42704770B500F008F892244900F1
:102480004FF000514FF08053FFF74CBE0EF1020E9B
:102490002EF0030E5EF8046B364205D4012A43EB9E
:1024A000030515F5001F12D8012841EB010C1CF59E
:1024B000001F0CD80ED14FEAD17C15F5001F0CEB94
:1024C0004C0C0CF1020C08BF4CEBD37C04E04FF039
:1024D000080C01E04FEAD37C0CEB4C0526FA05F61C
:1024E00006F00706B6F1040C06D20EEB860CBDE82A
:1024F00070404CF0010C6047DFE80CF0090B020261
:102500004FF000414FF00000A1F5002170BD1946C9
:102510001046012851EB010418BFD4F5001484BF04
:10252000002001F0004170BD0808A0F500114FEA3D
:102530003101704753EA010C17D41CF5801F58BFB6
:10254000BCF5801F00F106808B4218BF704708BFA2
:102550008242704707D713F5801F58BF11F5801FBF
:1025600019D48B4270479B4270471CF5801F08D5D9
:10257000BCF5801FF7D5994218BF704708BF90423D
:1025800070474FF4001C1CEB430F38BF1CEB410F8E
:1025900001D2994270470FB40CBC03BCFFF76BBF6C
:1025A00010B591EA030F48BF83F000433FF51AAD21
:1025B000841A71EB030C07D212198CF0004C43EB18
:1025C0000C03001B61EB0C01DFF8A4E14FEA11548E
:1025D000A4EB135C1EEA430F18BF9EEA445F00F0B1
:1025E000B08023EA6E03524221EA0451C3EB6E032A
:1025F00038BF5B1EDCF1200E25D322FA0CFE10EB57
:102600000E0043FA0CFE41EB0E01CCF1200E03FA52
:102610000EFE10EB0E0051F10001CCF1200E29D47A
:1026200012FA0EF201EB0451BDE8104058BF70479A
:10263000401C1CBFB2F1004F704700280CBF491C62
:1026400020F00100704712EB020E43EB030218BFAB
:102650004FF0010E4EEA4202ACF1200CDCF11E0EEE
:1026600054D943FA0CFE10EB0E0051F1FF31CCF1BE
:102670001E0ED5D50EF1010E12FA0EFE404141EBB1
:10268000010101EB445C5FEA5C5C10D910EBDE7089
:1026900001EB045138BFBEF1004FBDE8104018BF38
:1026A000704700280CBF491C20F00100704730D251
:1026B0004FEAD42C11F5001124F400641BD0B1FAB8
:1026C00081F20B3AA41AA41ED2F12003914030FAF1
:1026D00003F31943904001EBCC71002C01EB045142
:1026E000BDE81040A8BF704701F1C0414FF00000A5
:1026F00001F000417047B0FA80F310FA03F100D105
:1027000010BDE41A173C4805C90AE4E701EB04517F
:1027100010BD491001EB0451BDE810404FEA3000F4
:1027200002E04FF0000170474A0008BF0042F8D0B5
:10273000B2F5001F28BF704701F000414FF00000C4
:1027400070479EEA445F07D011EA5E0FBDE8104073
:1027500004BF002100207047BDE8104070B5FFF7AE
:1027600095FE00BF40DFF63E83F000411046704703
:102770000000E0FF43004FEAD30C4FEA3C0C43401B
:102780001FBF40070CF1605113F0FE4F70471CF063
:10279000006F03D100200CF0004170470CF00043A3
:1027A00043EA507010B540EACC0000F00EF800BFCC
:1027B000000000924FEA0001FFF7B6BE4FF0004163
:1027C0004FF00000A1F5002170470EF1020E2EF02F
:1027D000030E5EF8044B244204D44FEA4102B2F1E6
:1027E0007F4F11D84FEA4003B3F17F4F0CD80ED181
:1027F0004FEAD07CB2F17F4F0CEB4C0C0CF1020C89
:1028000008BF4CEBD17C04E04FF0080C01E04FEA2C
:10281000D17C0CEB4C0324FA03F404F00704B4F16C
:10282000040C06D20EEB840CBDE810404CF0010CF9
:102830006047DFE80CF0070802024FF00040A0F507
:10284000800010BD0846420018BFD2F1807288BFD8
:1028500000F0004010BD010002000400080010005C
:102860002000400080000001000200040008001069
:102870000020004000800000A42800080000002084
:102880004400000028010008E82800084400002057
:10289000D40B00004401000859F4FFFF45F4FFFF8A
:1028A00031F4FFFF00000000000000000000000005
:1028B0000000000000000000000000000000000018
:1028C0000000000000000000000000000000000008
:1028D00000000000000000000102030401020304E4
:0828E0000607080902040608BE
:04000005080000ED02
:00000001FF
