:020000040800F2
:10000000480C002099010008A1010008A301000884
:10001000A5010008A7010008A901000800000000D0
:10002000000000000000000000000000AB0100081C
:10003000AD01000800000000AF010008390C000805
:10004000B3010008B3010008B3010008B3010008C0
:10005000B3010008B3010008B3010008B3010008B0
:10006000B3010008B3010008B3010008B3010008A0
:1000700061050008B301000879050008B301000814
:10008000B301000891050008B3010008B30100089E
:10009000B3010008B3010008B3010008B301000870
:1000A000B3010008B3010008B3010008B301000860
:1000B000B3010008B3010008B3010008B301000850
:1000C000B3010008B3010008B3010008B301000840
:1000D000B3010008B90C0008D10C0008E90C0008B5
:1000E000B3010008B3010008B301000800F002F8F2
:1000F00000F043F80AA090E8000C82448344AAF17F
:100100000107DA4501D100F038F8AFF2090EBAE87C
:100110000F0013F0010F18BFFB1A43F0010318473B
:100120001823000038230000103A24BF78C878C193
:10013000FAD8520724BF30C830C144BF04680C60ED
:10014000704700000023002400250026103A28BF35
:1001500078C1FBD8520728BF30C148BF0B60704739
:100160001FB59DE8030000F0D7F800F04DF81FBD63
:1001700010B5002001F090FD10BD00F051F91146BE
:10018000FFF7EEFF01F032FE00F089F903B4FFF74C
:10019000EFFF03BC00F0BEF909488047094800475B
:1001A000FEE7FEE7FEE7FEE7FEE7FEE7FEE7FEE727
:1001B000FEE7FEE704480549054A064B7047000084
:1001C000590C0008ED00000848060020480C0020EB
:1001D000480800204808002070B5A0FB0140B4F199
:1001E000805170F1000024BF002070BD204600F057
:1001F00021F805001CBF214600F04BF8284670BDD1
:10020000704770477047000070B5064C7C44064D3F
:100210007D4403E0206820448047241DAC42F9D18E
:1002200070BD0000482200005022000000487047C6
:100230001C06002070B5064600F052F8056806F16D
:100240000B0020F00704B4429CBF002070BD2B4679
:100250006A68BAB11068A04210D304F1080188425C
:100260003CBF5068586007D351681019416011684D
:10027000091B016058601460101D70BD1346526860
:10028000002AE7D12146284600F032F80028DED1C6
:1002900070BD4FF000020429C0F0128010F0030C72
:1002A00000F09980CCF1040CBCF1020F18BF00F8EB
:1002B000012BA8BF20F8022BA1EB0C0100F08BB89A
:1002C0005FEAC17C24BF00F8012B00F8012B48BF76
:1002D00000F8012B7047000000487047E40500203B
:1002E00000487047EC050020704770477047704722
:1002F00038B504460A4600206946AFF3008000285E
:1003000008BF38BD02460099204600F0AEF8012033
:1003100038BD012000F0C9B8F8B5AFF3008005463C
:1003200000200C46102000BF0646A819A0420DD997
:10033000324669460020AFF30080070008BF00F096
:10034000B4F80098A04218BF0546C419FFF7C8FFCB
:1003500005600746F01D20F007004619284600F00A
:100360000AF8B44208BFF8BDA21B31463868BDE8A0
:10037000F84000F07AB800210160C0E90110704730
:100380001020704770B50446051FFFF7A9FF0068ED
:10039000002C14BF446870BD002C18BFAC423CBF99
:1003A00020466468F8D301680A18AA4218BF45605D
:1003B00003D12A6805461144016028684119A14209
:1003C0001CBF6C6070BD616869602168084428606A
:1003D00070BD4FF0000200B5134694469646203992
:1003E00022BFA0E80C50A0E80C50B1F12001BFF4EE
:1003F000F7AF090728BFA0E80C5048BF0CC05DF854
:1004000004EB890028BF40F8042B08BF704748BFA1
:1004100020F8022B11F0804F18BF00F8012B704715
:100420007546FFF759FFAE4605006946534620F072
:100430000700854618B020B5FFF7BCFEBDE8204098
:100440004FF000064FF000074FF000084FF0000B90
:1004500021F00701AC46ACE8C009ACE8C009ACE843
:10046000C009ACE8C0098D467047034640688C4619
:10047000002818BF88423CBF03464068F8D318687C
:100480001844884207D00CF1030020F00700001D3B
:10049000411A521A0146081D0A60FFF773BF04464D
:1004A000AFF300802046FFF771FE10B500F00AF8A8
:1004B000BDE8104000F001B87047002801D000F0FE
:1004C00029B8704710B5012805D0002103A000F01D
:1004D00027F8012010BD09A1F8E700005349475251
:1004E000544D454D3A204F7574206F662068656104
:1004F00070206D656D6F7279000000003A204865CC
:100500006170206D656D6F727920636F72727570A6
:100510007465640001491820ABBEFEE726000200A6
:1005200070B505460C460A2000E06D1C00F011F87D
:1005300035B128780028F8D102E0641C00F009F8F1
:1005400014B120780028F8D1BDE870400A20AFF33C
:10055000008008B569468DF800000320ABBE08BDD9
:1005600010B50448006818B10248006800F072FF36
:1005700010BD00001400002010B50448006818B138
:100580000248006800F066FF10BD00000C0000206B
:1005900010B50448006818B10248006800F05AFF1E
:1005A00010BD00001000002000F0805111B103497F
:1005B000086001E0024948607047000004040240FE
:1005C0000000024000F0805111B10349086001E0D1
:1005D00002494860704700000404024000000240E5
:1005E00021B1026842F00102026004E002684FF6A5
:1005F000FE731A400260704701460020002201F09D
:10060000805313B1054B1A6801E0054B1A6802EAE2
:1006100001030BB1012000E00020704700040240FC
:100620000000024010B50022026847F6F0739A43BA
:100630000C6A8B6823430C6923434C6923438C6900
:100640002343CC6923434C6A23438C6A23431A43D4
:100650000260CB6843600B6883604B68C36010BD69
:100660000149C860704700000020024030B50446D0
:1006700004254FF4302000F0A5F80546042D17D1CD
:100680000C48006940F002000A49086108464461CC
:10069000006940F0400008614FF4302000F092F80B
:1006A00005460448006941F6FD71084001490861AA
:1006B000284630BD0020024004200B49C96801F0E3
:1006C000010109B101200EE00749C96801F00401E8
:1006D00009B1022007E00449C96801F0100109B11D
:1006E000032000E004207047002002400348006916
:1006F00040F080000149086170470000002002407E
:1007000070B504460D460426F00200F05BF806467C
:10071000042E11D10948006940F001000749086121
:100720002580F00200F04EF806460448006941F6C4
:10073000FE71084001490861304670BD002002404A
:1007400078B506460C46042500200090E80200F02B
:1007500039F80546042D24D11348006940F0010002
:10076000114908613480E80200F02CF80546042D98
:1007700010D1B01C0090200C00990880E80200F015
:1007800021F805460848006941F6FE71084006490F
:10079000086106E00448006941F6FE71084002491C
:1007A0000861284678BD0000002002400248034945
:1007B00048600348486070472301674500200240B5
:1007C000AB89EFCD00B502460423FFF775FF034662
:1007D00003E0FFF771FF0346521E012B01D1002AEF
:1007E000F7D102B90523184600BD2DE9F0410246B4
:1007F00000250026002000230024002791F803C0D4
:100800000CF00F0591F803C00CF0100CBCF1000FB8
:1008100003D091F802C04CEA050591F800C0BCF184
:10082000000F31D0146800202BE04FF0010C0CFABF
:1008300000F3B1F800C00CEA03069E4220D1830009
:100840004FF00F0C0CFA03F7BC4305FA03FC4CEA1B
:10085000040491F803C0BCF1280F06D14FF0010C3D
:100860000CFA00FCC2F814C00AE091F803C0BCF115
:10087000480F05D14FF0010C0CFA00FCC2F810C073
:10088000401C0828D1D31460B1F800C0BCF1FF0FA0
:1008900034DD546800202EE000F1080C4FF0010810
:1008A00008FA0CF3B1F800C00CEA03069E4221D10D
:1008B00083004FF00F0C0CFA03F7BC4305FA03FC5E
:1008C0004CEA040491F803C0BCF1280F05D100F1F3
:1008D000080C08FA0CF8C2F8148091F803C0BCF1B7
:1008E000480F07D100F1080C4FF0010808FA0CF886
:1008F000C2F81080401C0828CED35460BDE8F081B7
:10090000F0B50A46002300240021002500F000462F
:10091000B6F1004F02D11D4EF16901E01B4E716826
:10092000C0F3034583B200F44016B6F5401F08D16A
:1009300021F07061154E766826F07066134F7E6068
:1009400012E000F48016B6F5801F06D1032606FAE1
:1009500005F4A14341F0706106E0460D360103FA4B
:1009600006F6B14341F0706122B1460D360103FA3B
:1009700006F6314300F00046B6F1004F02D1034EB7
:10098000F16101E0014E7160F0BD00000000014026
:10099000416170470161704770B5002100230F224B
:1009A000C47804B3154C246804F4E064C4F5E0642E
:1009B000210AC1F10403CA40447804FA03F184789F
:1009C0001440214309010E4C0678A155047804F027
:1009D0001F050124AC4005786D11AD0005F1E0253F
:1009E000C5F8004109E0047804F01F050124AC407B
:1009F000044D0678761145F8264070BD0CED00E0F8
:100A000000E400E080E100E002490143024A116095
:100A1000704700000000FA050CED00E029B1064A1D
:100A200052690243044B5A6104E0034A526982430B
:100A3000014B5A61704700000010024029B1064A7C
:100A4000D2690243044BDA6104E0034AD26982436B
:100A5000014BDA61704700000010024029B1064ADC
:100A600092690243044B9A6104E0034A926982430B
:100A7000014B9A61704700000010024030B5002120
:100A80000022002400232D4D6D6805F00C0121B1DA
:100A9000042905D0082923D105E0294D056022E06D
:100AA000274D05601FE0254D6D6805F47012234D3C
:100AB0006D6805F48034022505EB92421CB9214D86
:100AC000554305600BE01D4D6D6805F400351DB103
:100AD0001C4D5543056002E0194D5543056002E089
:100AE000174D056000BF00BF144D6D6805F0F001A3
:100AF0000909154D6B5C0568DD4045600F4D6D685B
:100B000005F4E061090A104D6B5C4568DD408560C5
:100B10000A4D6D6805F46051C90A0B4D6B5C456860
:100B2000DD40C560054D6D6805F44041890B074DFA
:100B30006B5CC568B5FBF3F5056130BD0010024084
:100B400000127A0000093D00380000204800002013
:100B500010B500F001F810BD0CB500200190009018
:100B60003348006840F480303149086000BF3048A5
:100B7000006800F4003000900198401C019000983B
:100B800018B90198B0F5A06FF1D12948006800F4B8
:100B9000003010B10120009001E00020009000988A
:100BA000012843D12348006840F010002149086023
:100BB0000846006820F0030008600846006840F01E
:100BC000020008601A4840681949486008464068B1
:100BD00048600846406840F48060486008464068C5
:100BE00020F47C1048600846406840F4E8104860F3
:100BF0000846006840F08070086000BF0C4800683C
:100C000000F000700028F9D00948406820F0030087
:100C1000074948600846406840F00200486000BF4D
:100C20000348406800F00C000828F9D10CBD000012
:100C3000001002400020024010B5044A044B054950
:100C400003C901F003FA034A03C210BDCDCCCCCCDA
:100C5000CCCCFC3F3000002010B51348006840F0B9
:100C600001001149086008464068104908400E49D3
:100C70004860084600680E4908400B49086008466D
:100C8000006820F4802008600846406820F4FE00D8
:100C900048604FF41F008860FFF75AFF4FF0006074
:100CA0000449086010BD0000001002400000FFF879
:100CB000FFFFF6FE08ED00E010B50448006818B12B
:100CC0000248006800F05EFB10BD00000C00002030
:100CD00010B50448006818B10248006800F052FBE3
:100CE00010BD00001000002010B50448006818B1C5
:100CF0000248006800F046FB10BD00001400002010
:100D000010B50022002340F66A14A14200D100BFB2
:100D10000A1201249440A3B2DC43048010BD21B127
:100D2000828942F40052828104E082894DF6FF7389
:100D30001A40828170471AB1838A0B43838202E092
:100D4000838A8B438382704702460020B1F5007F7F
:100D500000D100BF13880B400BB1012000E0002040
:100D6000704770B50246002400230025002040F69D
:100D70006A16B14200D100BFC1F3421501F01F0352
:100D8000012606FA03F3012D02D19689334006E0CD
:100D9000022D02D1168A334001E0968A33400C12AC
:100DA000012606FA04F41688344013B10CB1012070
:100DB00000E0002070BDF0B50346002400260025A9
:100DC000002040F66A17B94200D100BF1846C1F3AF
:100DD000421401F01F06012707FA06F5012C01D184
:100DE0000C3004E0022C01D1103000E014301AB1B4
:100DF00007682F43076002E00768AF430760F0BD54
:100E00002DE9F04786B005460E460024A24600BFF5
:100E1000A1460027B08900B100BF2F462C8A4CF6AE
:100E2000FF700440F08804432C82AC894EF6F31026
:100E30000440B08831890843718908430443AC8178
:100E4000AC8A4FF6FF400440B0890443AC8201A84D
:100E5000FFF714FE1F48874202D1DDF810A001E021
:100E6000DDF80CA0A88900F4004040B10AEBCA00EC
:100E700000EB0A1031684900B0FBF1F807E00AEB1B
:100E8000CA0000EB0A1031688900B0FBF1F8642059
:100E9000B8FBF0F004012009642101FB1089A88946
:100EA00000F4004040B1322000EBC900B0FBF1F08B
:100EB00000F00700044308E0322000EB0910642131
:100EC000B0FBF1F000F00F0004432C8106B0BDE848
:100ED000F08700000038014001468888C0F3080010
:100EE0007047C1F308028280704738B5044601207C
:100EF000009004F1080304220021206800F098FD0E
:100F000006E02189206800F0B9FD2089401E20817B
:100F100020890028F5DC0021206800F0AFFD204684
:100F200000F005F8204600F031F8012038BD38B552
:100F3000044601200090231D00221146206800F085
:100F400077FDA0884FF6FF71884208D10020A0806D
:100F5000E080208160810120A081002038BD012037
:100F60000090A31D02220021206800F061FD0120F5
:100F7000009004F1080304220021206800F058FDCD
:100F8000002060810120A08100BFE7E738B504465A
:100F900001200090231D00221146206800F0E1FD91
:100FA00001200090A31D02220021206800F0D9FD3D
:100FB0000120009004F1080304220021206800F0C1
:100FC000D0FD002060810120A08138BD7CB50446A1
:100FD0000D461646A08808B900207CBD002001906F
:100FE000012000906289A18901AB206800F020FDFA
:100FF000BDF804004FF6FF71884204D10120A081A2
:1010000000206081E9E76289A1892B46206800F011
:10101000DDFCBDF8040000EBD0714910A0EB4101EC
:1010200031B96089BDF804100844801C608105E076
:101030006089BDF804100844C01C60810120009044
:101040006289A18901AB206800F0F2FC6289A18964
:101050003346206800F0BAFCBDF8040000EBD07104
:101060004910A0EB410131B96089BDF80410084472
:10107000801C608105E06089BDF804100844C01C34
:101080006081012000906289A18901AB206800F095
:10109000CFFCA089218988420CDABDF804004FF604
:1010A000FF71884206D1A089401CA0810020608188
:1010B000012092E7012090E72DE9F04704460F4612
:1010C000904600250026AA46A946A088401CA0807C
:1010D000E0884FF6FF71884201D0E08810B94FF0E8
:1010E000000908E0E088C11700EB91518912A0EBDC
:1010F00081211FFA81F9208910B92089401C2081A3
:1011000002E0681C85B27F1C38780028F9D17F1B6B
:1011100003E0701C86B208F1010898F8000000286E
:10112000F7D1A8EB0608284605EBD0714910A5EBCE
:10113000410111B9A81C85B201E0E81C85B2304616
:1011400006EBD0714910A6EB410111B9B01C86B273
:1011500001E0F01C86B2A8191FFA80FA09EB0A0018
:10116000B0F5806F15DD20894FF6FF7101EA802010
:10117000E0802089401C208121893B460022206894
:1011800000F090FC218943462A46206800F08AFC42
:101190000DE021893B464A46206800F083FC09EBBC
:1011A00005039AB221894346206800F07BFCE08861
:1011B0005044E0802046FFF7E9FE0120BDE8F087BB
:1011C00070B504460D4625602046FFF7B0FE204668
:1011D00070BD00004FF0E021096921F004014FF0DB
:1011E000E0221161034951611146096941F003018F
:1011F000116170474031F7000146002006E00023EE
:1012000001F11402135400220A54401C1428F6DB86
:101210000846704710B504461F496068884204D1EB
:1012200001210420FFF71AFC34E01C496068884261
:1012300004D101210820FFF711FC2BE01849606858
:10124000884204D101211020FFF708FC22E0154953
:101250006068884204D101212020FFF7FFFB19E0DC
:1012600011496068884204D101214020FFF7F6FB54
:1012700010E00E496068884204D101218020FFF708
:10128000EDFB07E00A496068884203D1012180151F
:10129000FFF7E4FB10BD000000080140000C014016
:1012A000001001400014014000180140001C0140E2
:1012B0000020014070B504460D46002D07DD22894F
:1012C000074B33F812106068FFF764FB06E02289D1
:1012D000034B33F812106068FFF75AFB70BD000033
:1012E000182400082DE9F84304460F4615461E460B
:1012F000DDF82080267084F8018067602581204613
:10130000FFF788FF074830F81500ADF800008DF8AA
:1013100002808DF8036069466068FFF766FA204630
:10132000BDE8F883182400080FB501A90EC980E8AC
:101330000E0005A90EC9C0E90423C16004B000BDB8
:1013400070B504460E46154604F13A0000F06EFEF4
:10135000A84201DA002070BD2A46314604F13A0065
:1013600000F024FE0120F6E710B5044604F13A002F
:1013700000F05CFE10BD10B5044604F13A0000F028
:1013800058FE10BD38B5044640F22551D4F88C0003
:10139000FFF7E7FC88B1D4F88C00FFF79DFDC0B2E1
:1013A0006946009004F13A0000F0E6FD40F2255154
:1013B000D4F88C00FFF7A4FC00BF40F22771D4F8EA
:1013C0008C00FFF7CEFCE0B1204600F02FFE002895
:1013D00009DD1E49204600F0B7FD1C490978D4F804
:1013E0008C00FFF77EFD204600F020FE48B9002269
:1013F00040F22771D4F88C00FFF7DDFC002084F860
:10140000980040F22661D4F88C00FFF7AAFCE0B106
:10141000204600F00BFE002809DD0D49204600F0B3
:1014200093FD0B490978D4F88C00FFF75AFD20464C
:1014300000F0FCFD48B9002240F22661D4F88C008F
:10144000FFF7B9FC002084F8980038BD01000020A7
:101450000200002070B50446D4F89000FFF7CCF8E5
:10146000012839D18834E068FFF7ACF8A068FFF7AD
:101470009BF854F888090021FFF7B2F8204600F0E5
:10148000D5FD002825DD204600F0D0FD142810DC15
:10149000204600F0CBFDD4F888104860204600F0CC
:1014A000C5FD05462A4604F17401204600F07EFD84
:1014B00009E01420D4F888104860142204F1740163
:1014C000204600F073FD0121D4F88800FFF788F86A
:1014D00002E0002084F8980070BD00002DE9F04182
:1014E00004460E461546AAB23146204600F07DFD60
:1014F00094F8990078B394F8980060BB204600F007
:1015000095FD002827DD012084F89800204600F092
:101510008DFD142810DC204600F088FDD4F88810DA
:101520004860204600F082FD07463A4604F1740107
:10153000204600F03BFD09E01420D4F888104860F4
:10154000142204F17401204600F030FD0121D4F88A
:101550008800FFF745F894F8990020BB94F89800AC
:1015600008BB204600F062FD00281CDD54F88C0FFB
:1015700040F22661FFF7C4FB012240F22661206899
:10158000FFF719FC40212068FFF7DEFB01202073E4
:101590008C3C0649204600F0D7FC04490978D4F871
:1015A0008C00FFF79EFC0120BDE8F08100000020C8
:1015B0002DE9F04F93B004460E4692469B461C9F81
:1015C000204600F03BFD044604F13A0000F036FDF1
:1015D000A0F13A04002084F8980084F899B0032020
:1015E00084F89A0018208DF84B0003208DF84A00EB
:1015F0008DF8460004208DF84700012E34D1C648EE
:10160000C4F88C004FF0250894F8990048B1C348FD
:1016100044F8880F4FF00E097003A0604010E0609E
:10162000883CBF480460012F10D1012144F2090019
:10163000FFF714FA01210420FFF762F94020ADF80A
:1016400048008020ADF84400B64D9FE0012144F2EF
:101650000500FFF703FA4FF40070ADF848004000B2
:10166000ADF84400B04D91E0022E3AD1AF48C4F835
:101670008C004FF0260894F8990050B1A7483C30F0
:1016800044F8880F4FF011098004A0604010E0601A
:10169000883CA7480460012F13D101214804FFF7BB
:1016A000CDF901212120FFF7D9F901210820FFF709
:1016B00027F92020ADF848004020ADF844009D4DAA
:1016C00064E001214804FFF7B9F901210520FFF783
:1016D000C5F90420ADF848000820ADF84400924D4B
:1016E00054E0032E52D19448C4F88C004FF02708E0
:1016F00094F8990050B18948283844F8880F4FF081
:101700000C092020A0601020E060883C8B48046019
:10171000012F13D101218804FFF790F90121112035
:10172000FFF79CF901218648FFF7EAF8B802ADF807
:1017300048004000ADF84400824D27E0112F15D13C
:1017400001218804FFF77AF901212120FFF786F9AA
:1017500001217B482030FFF7D3F84FF48070ADF8BB
:1017600048004000ADF84400724D0FE001218804AC
:10177000FFF764F901210920FFF770F94FF4806049
:10178000ADF848004000ADF84400664D12A9284667
:10179000FFF72BF811A92846FFF727F8CDF834A05A
:1017A0002298ADF838002398ADF83A002198ADF8AA
:1017B0003C000020ADF840000C20ADF83E0054F88D
:1017C0008C0F0DA9FFF71CFB01212068FFF7A7FA7A
:1017D000607B8C3C00283FD001228021D4F88C0013
:1017E000FFF7A9FA01210846FFF718F9D4F88C0091
:1017F000001D019004F1740002901020039000205D
:101800000490059080200690002007900890099091
:10181000209820B1012806D002280CD107E04FF40F
:1018200040500A900AE04FF400500A9006E04FF44E
:1018300080500A9002E000200A9000BF00BF002004
:101840000B9001A9D4F88800FEF7ECFE0021D4F833
:101850008800FEF7C5FE06E0002240F22661D4F8BB
:101860008C00FFF7A8FA1D9830B1012809D0022892
:101870000CD004280FD113E04FF4E060FFF7C4F858
:1018800013E04FF4C060FFF7BFF80EE04FF4A06024
:10189000FFF7BAF809E04FF48060FFF7B5F804E00D
:1018A0004FF44070FFF7B0F800BF00BF8DF83080F4
:1018B0001E988DF831001F988DF8320001208DF8A8
:1018C00033000CA8FFF768F8012240F22551D4F844
:1018D0008C00FFF770FA94F89900C0B18DF8309041
:1018E0001E988DF831001F988DF832000CA8FFF774
:1018F00053F854F8880F006840F00200216808602F
:101900002068006840F0080054F8881908602046F4
:1019100013B0BDE8F08F00000038014044000240E1
:101920000C000020000C0140000801400044004071
:101930001000002000140140004800401400002066
:1019400010001400001001400D4AD0F88C10914294
:1019500003D100210B4A116010E00B4AD0F88C1023
:10196000914203D10021094A116007E0084AD0F8EA
:101970008C10914202D10021064A1160704700008C
:10198000003801400C0000200044004010000020FE
:10199000004800401400002070B506460C460025A3
:1019A000002001E06D1C401C215C0029FAD12A4670
:1019B00021463046FFF792FD304670BD0249416036
:1019C0000021017370470000CDCCCC3DF0B5064638
:1019D000144600220025706800EB81202044425B01
:1019E0001019B0F5806F01DD0020F0BDAD1C9446EC
:1019F00016E0706800EB81202044475B38121870B5
:101A00005F70AD1C901E82B29B1C012A08D17068C9
:101A100000EB81202044475B1F70501E82B25B1C8C
:101A2000002AE6DC00201870A3EB0C030120DCE7A1
:101A3000F0B505460C46059E3146287870B10AE09F
:101A4000686800EB84208718701A37F81000188037
:101A50009B1C481E81B20029F2D10DE00AE06868A3
:101A600000EB84208718701A57F8200018809B1C00
:101A7000481E81B20029F2D10120F0BD70B50546A3
:101A80000C46FEF793FE3520FEF7EAFD696801EB90
:101A90008420FEF7EBFD08B9002070BDFEF726FE9E
:101AA0000120FAE72DE9F04780460D4616461C4610
:101AB0000027B946FEF77AFE66B93520FEF7D0FD5D
:101AC000D8F8041001EB8520FEF7D0FD10B90020F6
:101AD000BDE8F08702E0781C87B2641C20780028FB
:101AE000F9D1B819B0F5806F0ADAD8F8041001EB13
:101AF0008521314401EB09003946FEF701FE01E082
:101B00000020E5E709F10209E41B23E06078217871
:101B100000EB01201FFA80FAA41CD8F8041001EB96
:101B20008521314401EB09005146FEF7E9FD09F139
:101B30000209B81E87B2012F0CD194F800A0D8F882
:101B4000041001EB8521314401EB09005146FEF7F9
:101B5000D7FD641C20780028D8D1FEF7C7FD0120EE
:101B6000B6E72DE9F04706460C4617469846DDF8DD
:101B7000209007EB0900B0F5806F02DD0020BDE882
:101B8000F0874D46FEF712FE57B93520FEF768FD87
:101B9000716801EB8420FEF769FD08B90020EEE7CB
:101BA0003078B8B113E0726802EB8422D319A9EB44
:101BB000050203EB4200B8F80010FEF7A1FD04286F
:101BC00001D00020DBE708F10208681E85B2002D75
:101BD000E9D116E013E0726802EB8422D319A9EB75
:101BE000050203EB8200B8F80010FEF7A9FD0428F7
:101BF00001D00020C3E708F10208681E85B2002D5D
:101C0000E9D1FEF773FD0120B9E7C1F3090323B160
:101C1000C1F30903C3F58063194441600270704742
:101C200070B504462068FFF7A6FB002505E00021FB
:101C300004F10C004155681C85B2201D00F074F9B8
:101C4000A842F4DC201D00F072F970BD70B50446A6
:101C50000D462560201D00F06FF9041F2046FFF798
:101C6000DFFF204670BD2DE9F041074690460E4645
:101C700000251020FEF7DEFA04000BD0C4F80C801B
:101C8000C4E90176FEF7D2FA0168216004602846B3
:101C9000BDE8F0810125FAE72DE9F0410646FEF79F
:101CA000C5FA804613E026B1E068B04201D025466F
:101CB0000EE020682860D4E90101D8F80070884758
:101CC0002046FEF75FFBD8F80000B84200D045463A
:101CD0002C68002CE7D1BDE8F081000000B5024877
:101CE000FFF778FA00BD00001800002000B5024898
:101CF000FFF782FA00BD0000BC05002010B588B0D7
:101D000000200323CDE9043006900790012007212D
:101D10001A460023CDE90032CDE9021003464FF404
:101D2000E13201462448FFF743FC0446234A244994
:101D3000FFF799FF00200323CDE9043006900790B8
:101D4000012007211A460023CDE90032CDE9021017
:101D500003464FF4E13203211A48FFF729FC0446F9
:101D6000164A1749FFF77FFF032010230B2216495D
:101D700000901648FFF7B6FA0320102300221449FA
:101D800000901448FFF7AEFA012213491348FFF7F9
:101D90003CFF1348FFF712FE0A491248FFF756FFAF
:101DA0000A4A07CA8DE807000A480EC80E48FFF71E
:101DB000BBFA08B010BD00004C0000200000000875
:101DC00049190008E80000200008014084010020B3
:101DD000000C014090010020009001080400002048
:101DE0009C010020B0010020A405002086B000BFA7
:101DF00036A437A539A63AA704211420FEF7ECF93A
:101E0000824604211420FEF7E7F98146384902A8EA
:101E1000FFF7D6F901213748FFF74CFA54E036486E
:101E2000FFF7A2FA00F0FF08B8F1010F4BDB012227
:101E300001A93148FFF784FA2F48FFF79CFA9DF873
:101E40000400012806D002280CD0032814D004284E
:101E500038D11BE002A8FFF748F828A12648FFF771
:101E60009BFD2FE02A46214602A8FFF725F926A16F
:101E70002148FFF791FD25E03A46314602A8FFF7D9
:101E80001BF923A11C48FFF787FD1BE04A4651467A
:101E900002A8FFF79BF880B151461748FFF77CFD79
:101EA00083461DA1FFF778FD49461348FFF774FDEF
:101EB000834619A1FFF770FD03E018A10E48FFF754
:101EC0006BFD00BF00BF00BFA9E70000464646000B
:101ED000663139393430323032000000667A6A00B7
:101EE000686168616861686168616861000000003C
:101EF00004000020900100204C000020636C65610C
:101F00007221210A0000000053617665310A000049
:101F100053617665320A00000A0000004E6F2064AB
:101F20006174610A00000000014648887047002182
:101F300041808180C18070474FF47A710180002117
:101F400041808180C180704702465088002801DCB2
:101F5000002070479388581C908002F10800C05CF4
:101F6000087090881388984201DB00209080508888
:101F7000401E50800120ECE710B5024650881388BF
:101F8000984201DB002010BD0B78D488601CD08003
:101F900002F108000355D0881388984201DB002025
:101FA000D0805088401C50800120ECE730B50346BB
:101FB0005888904201DA002030BD00200EE09D8854
:101FC0006C1C9C8003F10804645D0C549C881D8883
:101FD000AC4201DB00249C80441CA0B29042EEDBAA
:101FE0005888801A58800120E6E770B50346588863
:101FF00010441C88A04201DD002070BD00200EE0CE
:102000000D5CDE88741CDC8003F10804A555DC88B7
:102010001D88AC4201DB0024DC80441CA0B290424D
:10202000EEDB5888104458800120E6E701464888D6
:102030007047002141808180C1807047322101803A
:10204000002141808180C1807047000010B591EA75
:10205000030F48BF83F0004300F1FC80841A71EB4A
:10206000030C05D2121943EB0C03001B61EB0C01AE
:10207000DFF824E14FEA1154A4EB135C1EEA430F8E
:1020800018BF9EEA445F73D023EA0E03DCF1200EF2
:1020900021EA045143F4801332D322FA0CFE10EBF0
:1020A0000E0023FA0CFE41EB0E01CCF1200E03FAD8
:1020B0000EFE10EB0E0051F10001B1F5801FCCF1C6
:1020C000200E32D201EB045112FA0EF2BDE810409C
:1020D00058BF7047401C38BF5FEA420218BF7047C4
:1020E000002814BF20F0010041F100014FEA410334
:1020F00013F5001F38BF7047A1F1C04100F09CB834
:10210000012A43EB0302ACF1200CDCF11F0E32BFBD
:102110004FF0000E23FA0CF310EB030041EB0451D7
:10212000B4EB115FD0D0A1EB045101F58011490847
:102130005FEA300001EB04510ED350F1000038BFCC
:1021400012FA0EFE08D1BDE81040C9E7401C38BFA6
:102150005FEA4202CAD1C3E7BDE810404FEA41033B
:1021600013F5001F38BF7047A1F1C04100F064B8FB
:102170009EEA445F08D011EA5E0FBDE8104004BF3C
:1021800001F0004100207047BDE8104070B500F03C
:1021900005F800BF64FBBE3E0000E0FF0EF1020E3A
:1021A0002EF0030E5EF8046B364205D4012A43EB91
:1021B000030515F5001F12D8012841EB010C1CF591
:1021C000001F0CD80ED14FEAD17C15F5001F0CEB87
:1021D0004C0C0CF1020C08BF4CEBD37C04E04FF02C
:1021E000080C01E04FEAD37C0CEB4C0526FA05F60F
:1021F00006F00706B6F1040C06D20EEB860CBDE81D
:1022000070404CF0010C6047DFE80CF0090B020253
:102210004FF000414FF00000A1F5002170BD1946BC
:102220001046012851EB010418BFD4F5001484BFF7
:10223000002001F0004170BD0808A0F500114FEA30
:102240003101704710B591EA030F48BF83F0004396
:102250003FF504AF841A71EB030C07D212198CF00E
:10226000004C43EB0C03001B61EB0C01DFF8A4E115
:102270004FEA1154A4EB135C1EEA430F18BF9EEA09
:10228000445F00F0B08023EA6E03524221EA045119
:10229000C3EB6E0338BF5B1EDCF1200E25D322FAA0
:1022A0000CFE10EB0E0043FA0CFE41EB0E01CCF1DC
:1022B000200E03FA0EFE10EB0E0051F10001CCF1DE
:1022C000200E29D412FA0EF201EB0451BDE81040A1
:1022D00058BF7047401C1CBFB2F1004F7047002828
:1022E0000CBF491C20F00100704712EB020E43EBBB
:1022F000030218BF4FF0010E4EEA4202ACF1200C6F
:10230000DCF11E0E54D943FA0CFE10EB0E0051F115
:10231000FF31CCF11E0ED5D50EF1010E12FA0EFED4
:10232000404141EB010101EB445C5FEA5C5C10D988
:1023300010EBDE7001EB045138BFBEF1004FBDE879
:10234000104018BF704700280CBF491C20F0010046
:10235000704730D24FEAD42C11F5001124F40064F8
:102360001BD0B1FA81F20B3AA41AA41ED2F12003B9
:10237000914030FA03F31943904001EBCC71002CEB
:1023800001EB0451BDE81040A8BF704701F1C04106
:102390004FF0000001F000417047B0FA80F310FAEE
:1023A00003F100D110BDE41A173C4805C90AE4E75F
:1023B00001EB045110BD491001EB0451BDE8104080
:1023C0004FEA300002E04FF0000170474A0008BFBA
:1023D0000042F8D0B2F5001F28BF704701F000415D
:1023E0004FF0000070479EEA445F07D011EA5E0F8D
:1023F000BDE8104004BF002100207047BDE8104038
:1024000070B5FFF7CBFE00BF40DFF63E83F0004122
:10241000104670470000E0FF0100020004000800C1
:1024200010002000400080000001000200040008AD
:1024300000100020004000806424000800000020FC
:102440004C00000028010008B02400084C000020C7
:10245000FC0B000044010008A5F8FFFF91F8FFFF06
:102460007DF8FFFF000000000000000000000000F9
:10247000000000000000000000000000000000005C
:10248000000000000000000000000000000000004C
:10249000000000000000000000000000000000003C
:1024A00001020304010203040607080902040608E6
:04000005080000ED02
:00000001FF
