:020000040800F2
:10000000580C002099010008A1010008A301000874
:10001000A5010008A7010008A901000800000000D0
:10002000000000000000000000000000AB0100081C
:10003000AD01000800000000AF010008710C0008CD
:10004000B3010008B3010008B3010008B3010008C0
:10005000B3010008B3010008B3010008B3010008B0
:10006000B3010008B3010008B3010008B3010008A0
:1000700085050008B30100089D050008B3010008CC
:10008000B3010008B5050008B3010008B30100087A
:10009000B3010008B3010008B3010008B301000870
:1000A000B3010008B3010008B3010008B301000860
:1000B000B3010008B3010008B3010008B301000850
:1000C000B3010008B3010008B3010008B301000840
:1000D000B3010008F10C0008090D0008210D00080B
:1000E000B3010008B3010008B301000800F002F8F2
:1000F00000F043F80AA090E8000C82448344AAF17F
:100100000107DA4501D100F038F8AFF2090EBAE87C
:100110000F0013F0010F18BFFB1A43F0010318473B
:100120007435000094350000103A24BF78C878C1B7
:10013000FAD8520724BF30C830C144BF04680C60ED
:10014000704700000023002400250026103A28BF35
:1001500078C1FBD8520728BF30C148BF0B60704739
:100160001FB59DE8030000F0E9F800F05FF81FBD3F
:1001700010B5002002F0D3FB10BD00F063F911466A
:10018000FFF7EEFF02F07AFC00F09BF903B4FFF7F3
:10019000EFFF03BC00F0D0F9094880470948004749
:1001A000FEE7FEE7FEE7FEE7FEE7FEE7FEE7FEE727
:1001B000FEE7FEE704480549054A064B7047000084
:1001C000910C0008ED00000858060020580C002093
:1001D000580800205808002070B5A0FB0140B4F179
:1001E000805170F1000024BF002070BD204600F057
:1001F00033F805001CBF214600F05DF8284670BDAD
:1002000030B505460B462A4613F8014B12F8010B90
:1002100008B1A042F8D01CB1002802D06D1CF1E753
:10022000284630BD704770477047000070B5064CD7
:100230007C44064D7D4403E0206820448047241D13
:10024000AC42F9D170BD0000803400008834000059
:10025000004870472C06002070B5064600F052F8A2
:10026000056806F10B0020F00704B4429CBF002093
:1002700070BD2B466A68BAB11068A04210D304F171
:10028000080188423CBF5068586007D35168101974
:1002900041601168091B016058601460101D70BD39
:1002A00013465268002AE7D12146284600F032F86A
:1002B0000028DED170BD4FF000020429C0F012808A
:1002C00010F0030C00F09980CCF1040CBCF1020F8B
:1002D00018BF00F8012BA8BF20F8022BA1EB0C01DE
:1002E00000F08BB85FEAC17C24BF00F8012B00F856
:1002F000012B48BF00F8012B7047000000487047F1
:10030000F405002000487047FC0500207047704746
:100310007047704738B504460A4600206946AFF377
:100320000080002808BF38BD02460099204600F032
:10033000AEF8012038BD012000F0C9B8F8B5AFF320
:100340000080054600200C46102000BF0646A81974
:10035000A0420DD9324669460020AFF30080070065
:1003600008BF00F0B4F80098A04218BF0546C419B1
:10037000FFF7C8FF05600746F01D20F0070046198B
:10038000284600F00AF8B44208BFF8BDA21B314667
:100390003868BDE8F84000F07AB800210160C0E993
:1003A000011070471020704770B50446051FFFF715
:1003B000A9FF0068002C14BF446870BD002C18BF52
:1003C000AC423CBF20466468F8D301680A18AA42D0
:1003D00018BF456003D12A680546114401602868AA
:1003E0004119A1421CBF6C6070BD616869602168E1
:1003F0000844286070BD4FF0000200B513469446D3
:100400009646203922BFA0E80C50A0E80C50B1F16C
:100410002001BFF4F7AF090728BFA0E80C5048BF80
:100420000CC05DF804EB890028BF40F8042B08BF1E
:10043000704748BF20F8022B11F0804F18BF00F81A
:10044000012B70477546FFF759FFAE460500694618
:10045000534620F00700854618B020B5FFF7AAFEE6
:10046000BDE820404FF000064FF000074FF00008B5
:100470004FF0000B21F00701AC46ACE8C009ACE836
:10048000C009ACE8C009ACE8C0098D467047034616
:1004900040688C46002818BF88423CBF034640682D
:1004A000F8D318681844884207D00CF1030020F0F4
:1004B0000700001D411A521A0146081D0A60FFF785
:1004C00073BF0446AFF300802046FFF75FFE10B510
:1004D00000F00AF8BDE8104000F001B870470028AD
:1004E00001D000F029B8704710B5012805D00021CF
:1004F00003A000F027F8012010BD09A1F8E70000D3
:1005000053494752544D454D3A204F7574206F66FC
:100510002068656170206D656D6F72790000000064
:100520003A2048656170206D656D6F727920636F48
:10053000727275707465640001491820ABBEFEE7E5
:100540002600020070B505460C460A2000E06D1C2E
:1005500000F011F835B128780028F8D102E0641CC9
:1005600000F009F814B120780028F8D1BDE87040F7
:100570000A20AFF3008008B569468DF8000003201B
:10058000ABBE08BD10B50448006818B10248006849
:1005900001F0C6F910BD00001400002010B5044899
:1005A000006818B10248006801F0BAF910BD0000F7
:1005B0000C00002010B50448006818B1024800681B
:1005C00001F0AEF910BD00001000002000F08051D5
:1005D00011B10349086001E002494860704700001A
:1005E000040402400000024000F0805111B10349B0
:1005F000086001E0024948607047000004040240BE
:100600000000024021B1026842F00102026004E0F1
:1006100002684FF6FE731A400260704701460020E0
:10062000002201F0805313B1054B1A6801E0054B1D
:100630001A6802EA01030BB1012000E000207047B4
:10064000000402400000024010B50022026847F694
:10065000F0739A430C6A8B6823430C6923434C69FB
:1006600023438C692343CC6923434C6A23438C6A1C
:1006700023431A430260CB6843600B6883604B6876
:10068000C36010BD0149C8607047000000200240EF
:1006900030B5044604254FF4302000F0A5F8054697
:1006A000042D17D10C48006940F002000A49086186
:1006B00008464461006940F0400008614FF4302072
:1006C00000F092F805460448006941F6FD710840C3
:1006D00001490861284630BD0020024004200B4932
:1006E000C96801F0010109B101200EE00749C9689C
:1006F00001F0040109B1022007E00449C96801F0D2
:10070000100109B1032000E00420704700200240DE
:100710000348006940F0800001490861704700000B
:100720000020024070B504460D460426F00200F099
:100730005BF80646042E11D10948006940F001001B
:10074000074908612580F00200F04EF8064604488B
:10075000006941F6FE71084001490861304670BDEC
:100760000020024078B506460C4604250020009083
:10077000E80200F039F80546042D24D11348006939
:1007800040F00100114908613480E80200F02CF8C3
:100790000546042D10D1B01C0090200C0099088053
:1007A000E80200F021F805460848006941F6FE71AC
:1007B00008400649086106E00448006941F6FE71F8
:1007C000084002490861284678BD00000020024028
:1007D0000248034948600348486070472301674561
:1007E00000200240AB89EFCD00B502460423FFF79D
:1007F00075FF034603E0FFF771FF0346521E012B0E
:1008000001D1002AF7D102B90523184600BD2DE910
:10081000F041024600250026002000230024002786
:1008200091F803C00CF00F0591F803C00CF0100C08
:10083000BCF1000F03D091F802C04CEA050591F815
:1008400000C0BCF1000F31D0146800202BE04FF045
:10085000010C0CFA00F3B1F800C00CEA03069E424A
:1008600020D183004FF00F0C0CFA03F7BC4305FABC
:1008700003FC4CEA040491F803C0BCF1280F06D134
:100880004FF0010C0CFA00FCC2F814C00AE091F819
:1008900003C0BCF1480F05D14FF0010C0CFA00FC6D
:1008A000C2F810C0401C0828D1D31460B1F800C0B1
:1008B000BCF1FF0F34DD546800202EE000F1080C7D
:1008C0004FF0010808FA0CF3B1F800C00CEA030677
:1008D0009E4221D183004FF00F0C0CFA03F7BC436A
:1008E00005FA03FC4CEA040491F803C0BCF1280F9C
:1008F00005D100F1080C08FA0CF8C2F8148091F840
:1009000003C0BCF1480F07D100F1080C4FF00108FB
:1009100008FA0CF8C2F81080401C0828CED35460A6
:10092000BDE8F081F0B50A4600230024002100252F
:1009300000F00046B6F1004F02D11D4EF16901E012
:100940001B4E7168C0F3034583B200F44016B6F540
:10095000401F08D121F07061154E766826F0706650
:10096000134F7E6012E000F48016B6F5801F06D1AA
:10097000032606FA05F4A14341F0706106E0460D36
:10098000360103FA06F6B14341F0706122B1460D1B
:10099000360103FA06F6314300F00046B6F1004F87
:1009A00002D1034EF16101E0014E7160F0BD000023
:1009B000000001400246002093680B400BB101206B
:1009C00000E00020704741617047016170470000FE
:1009D00070B5002100230F22C47804B3154C24689D
:1009E00004F4E064C4F5E064210AC1F10403CA40E0
:1009F000447804FA03F184781440214309010E4C31
:100A00000678A155047804F01F050124AC40057850
:100A10006D11AD0005F1E025C5F8004109E004784D
:100A200004F01F050124AC40044D0678761145F80A
:100A3000264070BD0CED00E000E400E080E100E045
:100A400002490143024A1160704700000000FA05A4
:100A50000CED00E029B1064A52690243044B5A6189
:100A600004E0034A52698243014B5A617047000017
:100A70000010024029B1064AD2690243044BDA61F0
:100A800004E0034AD2698243014BDA6170470000F7
:100A90000010024029B1064A92690243044B9A6150
:100AA00004E0034A92698243014B9A617047000057
:100AB0000010024030B500210022002400232D4DFB
:100AC0006D6805F00C0121B1042905D0082923D156
:100AD00005E0294D056022E0274D05601FE0254D0A
:100AE0006D6805F47012234D6D6805F4803402259D
:100AF00005EB92421CB9214D554305600BE01D4D9D
:100B00006D6805F400351DB11C4D5543056002E0CC
:100B1000194D5543056002E0174D056000BF00BF49
:100B2000144D6D6805F0F0010909154D6B5C056801
:100B3000DD4045600F4D6D6805F4E061090A104D18
:100B40006B5C4568DD4085600A4D6D6805F4605159
:100B5000C90A0B4D6B5C4568DD40C560054D6D688D
:100B600005F44041890B074D6B5CC568B5FBF3F597
:100B7000056130BD0010024000127A0000093D00FE
:100B8000380000204800002010B500F001F810BD2A
:100B90000CB50020019000903348006840F480308C
:100BA0003149086000BF3048006800F40030009010
:100BB0000198401C0190009818B90198B0F5A06FF9
:100BC000F1D12948006800F4003010B101200090F4
:100BD00001E0002000900098012843D123480068DC
:100BE00040F01000214908600846006820F003002A
:100BF00008600846006840F0020008601A48406833
:100C0000194948600846406848600846406840F412
:100C1000806048600846406820F47C1048600846C0
:100C2000406840F4E81048600846006840F0807072
:100C3000086000BF0C48006800F000700028F9D080
:100C40000948406820F003000749486008464068AA
:100C500040F00200486000BF0348406800F00C000C
:100C60000828F9D10CBD000000100240002002400D
:100C700010B5044A044B054903C902F0B9F8034A08
:100C800003C210BDCDCCCCCCCCCCFC3F300000207E
:100C900010B51348006840F001001149086008468B
:100CA0004068104908400E494860084600680E49EF
:100CB00008400B4908600846006820F4802008605E
:100CC0000846406820F4FE0048604FF41F0088602A
:100CD000FFF75AFF4FF000600449086010BD0000A4
:100CE000001002400000FFF8FFFFF6FE08ED00E0F4
:100CF00010B50448006818B10248006800F0A8FD6B
:100D000010BD00000C00002010B50448006818B1A8
:100D10000248006800F09CFD10BD0000100000209B
:100D200010B50448006818B10248006800F090FD52
:100D300010BD00001400002010B50022002340F672
:100D40006A14A14200D100BF0A1201249440A3B248
:100D5000DC43048010BD21B1828942F400528281BB
:100D600004E082894DF6FF731A40828170471AB100
:100D7000838A0B43838202E0838A8B43838270479A
:100D800002460020B1F5007F00D100BF13880B4060
:100D90000BB1012000E00020704770B5024600242E
:100DA00000230025002040F66A16B14200D100BFA2
:100DB000C1F3421501F01F03012606FA03F3012DCA
:100DC00002D19689334006E0022D02D1168A3340C3
:100DD00001E0968A33400C12012606FA04F41688C4
:100DE000344013B10CB1012000E0002070BDF0B51B
:100DF0000346002400260025002040F66A17B94269
:100E000000D100BF1846C1F3421401F01F060127AC
:100E100007FA06F5012C01D10C3004E0022C01D1B7
:100E2000103000E014301AB107682F43076002E069
:100E30000768AF430760F0BD2DE9F04786B005466F
:100E40000E460024A24600BFA1460027B08900B18B
:100E500000BF2F462C8A4CF6FF700440F0880443F4
:100E60002C82AC894EF6F3100440B08831890843D7
:100E7000718908430443AC81AC8A4FF6FF400440BB
:100E8000B0890443AC8201A8FFF714FE1F488742D3
:100E900002D1DDF810A001E0DDF80CA0A88900F473
:100EA000004040B10AEBCA0000EB0A10316849006B
:100EB000B0FBF1F807E00AEBCA0000EB0A1031685A
:100EC0008900B0FBF1F86420B8FBF0F004012009C0
:100ED000642101FB1089A88900F4004040B1322050
:100EE00000EBC900B0FBF1F000F00700044308E09C
:100EF000322000EB09106421B0FBF1F000F00F008C
:100F000004432C8106B0BDE8F087000000380140A2
:100F100001468888C0F308007047C1F30802828048
:100F2000704700002DE9F04104460D4616461F4665
:100F30001B4801F0F5FB10B90020BDE8F0814FF42B
:100F40007A71184800F024FA0121154801F06CFC70
:100F50004FF47A71134800F01BFA114801F01CFBA2
:100F60004FF4FA710F4800F013FA0D4801F042FCFB
:100F700003210C4800F0EEF92A462146084801F00A
:100F8000E7FB08B90020D8E73B46324606A10448F3
:100F900001F07AFA08B90020CFE70120CDE7000080
:100FA000C0010020180000205443500070B50446D2
:100FB0000D461D4801F0B4FB08B9002070BD4FF488
:100FC0007A711A4800F0E4F9174801F0B7FA4FF4C3
:100FD000FA71164800F0DCF9134801F00BFC03210C
:100FE000124800F0B7F901210F4801F003FB4FF45C
:100FF0007A710E4800F0CCF921460B4801F032F925
:101000004FF47A71094800F0C3F92946064801F007
:101010005FF94FF47A71054800F0BAF9044800F01E
:1010200010FC0120CAE70000C001002018000020C9
:10103000E8000020F8B505460E461746002000904F
:10104000002401226946384600F0E0FB9DF80000CC
:10105000FF283DD164211F4800F09AF9012269461A
:10106000384600F0D3FB9DF8000003282ED1012262
:101070006946384600F0CAFB09E09DF80000285593
:10108000601CC4B201226946384600F0BFFB9DF8DF
:101090000000FF28F1D1002028550122694638467A
:1010A00000F0B4FB002409E09DF800003055601CFE
:1010B000C4B201226946384600F0A8FB9DF8000042
:1010C000FF28F1D1002030550120F8BD0020FCE7B9
:1010D0000020FAE71800002001468888704738B5DC
:1010E00004460120009004F1080304220021206836
:1010F00001F01EF806E02189206801F03FF8208900
:10110000401E208120890028F5DC0021206801F0A4
:1011100035F8204600F005F8204600F034F80120AC
:1011200038BD38B5044601200090231D0022114629
:10113000206800F0FDFFA0884FF6FF7188420BD1B8
:101140000020A080E080208160810120A0812046D5
:1011500000F019F8002038BD01200090A31D0222E4
:101160000021206800F0E4FF0120009004F1080352
:1011700004220021206800F0DBFF002060810120B4
:10118000A08100BFE7E738B5044601200090231D89
:1011900000221146206801F005F801200090A31DEF
:1011A00002220021206800F0FDFF0120009004F1E0
:1011B000080304220021206800F0F4FF0020608171
:1011C0000120A08138BD7CB504460D461646A08896
:1011D00008B900207CBD00200190012000906289A8
:1011E000A18901AB206800F0A3FFBDF804004FF611
:1011F000FF71884204D10120A08100206081E9E7CD
:101200006289A1892B46206800F060FFBDF80400C8
:1012100000EBD0714910A0EB410131B96089BDF8F4
:1012200004100844801C608105E06089BDF804104A
:101230000844C01C6081012000906289A18901AB33
:10124000206800F075FF6289A1893346206800F0AC
:101250003DFFBDF8040000EBD0714910A0EB410147
:1012600031B96089BDF804100844801C608105E034
:101270006089BDF804100844C01C60810120009002
:101280006289A18901AB206800F052FFA089218901
:1012900088420CDABDF804004FF6FF71884206D18F
:1012A000A089401CA08100206081012092E70120DC
:1012B00090E770B504460D4625602046FFF731FFE4
:1012C000204670BD2DE9F0474FF0E021886901F01C
:1012D0009BFF06460022174B01F03EFE04460D46DA
:1012E000154A164B164903C901F082FD8046224675
:1012F0002B4602F063F8134A03C2134811490CC885
:1013000003C902F05BF80446104A114B02F020F8C2
:1013100007D2094A094B0B4903C902F04FF8094AA1
:1013200003C2084903C9084A03C2064903C9BDE804
:10133000F0870000882A6141CDCCCCCCCCCCFC3FDE
:1013400030000020200000202800002062105839C2
:10135000B4C8FC3F2DE9FC5F83468A46FFF7B2FF25
:1013600004460D4600BF504601F04EFF06460F46AC
:10137000FFF7A8FF22462B46CDE9000102F01EF838
:10138000804632463B4601F053FFECD3BDE8FC9F5C
:101390002DE9FC5F83460C46FFF794FF05460E4699
:1013A00000BF204601F030FF074600220A4B01F043
:1013B000D3FD81468A46FFF785FF07462A46334616
:1013C00001F0FCFF4A465346CDE9000101F030FF31
:1013D000E7D3BDE8FC9F000000408F402DE9FC5F93
:1013E00083460C46FFF76EFF05460E4600BF2046BB
:1013F00001F00AFF074600220A4B01F0ADFD8146CD
:101400008A46FFF75FFF07462A46334601F0D6FFBC
:101410004A465346CDE9000101F00AFFE7D3BDE893
:10142000FC9F000080842E412DE9FC5F83468A46A4
:1014300016461F46FFF746FF04460D46DAE90083CD
:1014400042462046294601F0B9FF32463B46CDE9E7
:10145000000101F07DFF04D8CAE900450120BDE884
:10146000FC9F0020FBE700004FF0E021096921F01C
:1014700004014FF0E02211610349516111460969ED
:1014800041F00301116170474031F7002DE9F05F31
:1014900005460E4617461C46DDE90B9ADDF8288006
:1014A0004B463A463146284600F086F883465A466F
:1014B0001421504601F00AF94FF47A710A48FFF7F7
:1014C00067FF4FF47A710848FFF762FF4B464246C8
:1014D0002146284600F094F883465A461421504687
:1014E00001F0F4F8BDE8F09F18000020FEB50546B5
:1014F0000C460020019002900090204600F09AF9DE
:10150000C6B2072E2FDD01226946204600F07EF983
:101510009DF80000FF2824D101226946204600F0F2
:1015200075F99DF80000DD2819D100BF204600F0B4
:1015300081F90628FADBFF208DF80400DD208DF804
:10154000050006220DF10601204600F05FF9204655
:1015500000F077F901A9284600F007F8FEBD002049
:10156000FCE70020FAE70020F8E730B504460878E9
:10157000FF281FD14878DD281CD188780006CA785A
:1015800000EB02400A7900EB02204A798318012B14
:101590000FD10022002003E00D5C2A44451CE8B274
:1015A0000728F9DBC879D5B2A84201D1887930BDC6
:1015B00000BF00BF0020FAE770B50446FF20207589
:1015C000AA2565751225A5753425E5755625257658
:1015D000782565760125A576E17622776377002068
:1015E00009E027252E5D04F114052D5C3544EEB28B
:1015F00027252E55401C1328F3DB04F1140070BD81
:1016000070B50446FF202075AA2565751225A575BD
:101610003425E57556252576782565760225A57647
:10162000E17622776377002009E027252E5D04F11B
:1016300014052D5C3544EEB227252E55401C132889
:10164000F3DB04F1140070BD2DE9F04106460C46B1
:10165000154665B1FF231A4619463046FFF7ACFF21
:1016600007463A461421204601F030F80CE0FF23EB
:101670001A4619463046FFF79FFF07463B4614229D
:101680000021204600F0EAFFBDE8F081014600207D
:1016900006E0002301F11402135400220A54401CF6
:1016A0001428F6DB0846704710B504461F496068E9
:1016B000884204D101210420FFF7ECF934E01C49F1
:1016C0006068884204D101210820FFF7E3F92BE08C
:1016D00018496068884204D101211020FFF7DAF927
:1016E00022E015496068884204D101212020FFF7DB
:1016F000D1F919E011496068884204D101214020E4
:10170000FFF7C8F910E00E496068884204D1012152
:101710008020FFF7BFF907E00A496068884203D1DB
:1017200001218015FFF7B6F910BD00000008014047
:10173000000C01400010014000140140001801405D
:10174000001C01400020014070B504460D46002DEC
:1017500007DD2289074B33F812106068FFF735F96F
:1017600006E02289034B33F812106068FFF72BF96B
:1017700070BD0000723600082DE9F84304460F469C
:1017800015461E46DDF82080267084F801806760CB
:1017900025812046FFF788FF074830F81500ADF88F
:1017A00000008DF802808DF8036069466068FFF7DD
:1017B0002EF82046BDE8F8837236000870B504465E
:1017C00005250FE000212046FFF7BEFFC82108488D
:1017D000FFF7DEFD01212046FFF7B6FFC8210448D0
:1017E000FFF7D6FD2800A5F10101CDB2EAD170BD09
:1017F000180000200FB501A90EC980E80E0005A948
:101800000EC9C0E90423C16004B000BD70B5044630
:101810000E46154604F13A0001F0DAFAA84201DA60
:10182000002070BD2A46314604F13A0001F090FADA
:101830000120F6E710B5044604F13A0001F0C8FAB9
:1018400010BD10B5044604F13A0001F0C4FA10BD11
:1018500038B5044640F22551D4F88C00FFF79DFAC4
:1018600088B1D4F88C00FFF753FBC0B269460090F2
:1018700004F13A0001F052FA40F22551D4F88C00FC
:10188000FFF75AFA00BF40F22771D4F88C00FFF737
:1018900084FAE0B1204601F09BFA002809DD1E49D8
:1018A000204601F023FA1C490978D4F88C00FFF790
:1018B00034FB204601F08CFA48B9002240F227712F
:1018C000D4F88C00FFF793FA002084F8980040F2D7
:1018D0002661D4F88C00FFF760FAE0B1204601F0F1
:1018E00077FA002809DD0D49204601F0FFF90B4980
:1018F0000978D4F88C00FFF710FB204601F068FA55
:1019000048B9002240F22661D4F88C00FFF76FFA44
:10191000002084F8980038BD01000020020000205B
:1019200070B50446D4F89000FEF778FE012839D14E
:101930008834E068FEF758FEA068FEF747FE54F8CA
:1019400088090021FEF75EFE204601F041FA0028DA
:1019500025DD204601F03CFA142810DC204601F079
:1019600037FAD4F888104860204601F031FA05466D
:101970002A4604F17401204601F0EAF909E0142036
:10198000D4F888104860142204F17401204601F054
:10199000DFF90121D4F88800FEF734FE02E00020D0
:1019A00084F8980070BD00002DE9F04104460E4611
:1019B0001546AAB23146204601F0E9F994F899009B
:1019C00078B394F8980060BB204601F001FA002833
:1019D00027DD012084F89800204601F0F9F9142849
:1019E00010DC204601F0F4F9D4F888104860204655
:1019F00001F0EEF907463A4604F17401204601F081
:101A0000A7F909E01420D4F888104860142204F1E2
:101A10007401204601F09CF90121D4F88800FEF7FA
:101A2000F1FD94F8990020BB94F8980008BB20467B
:101A300001F0CEF900281CDD54F88C0F40F226612D
:101A4000FFF77AF9012240F226612068FFF7CFF90B
:101A500040212068FFF794F9012020738C3C06494F
:101A6000204601F043F904490978D4F88C00FFF7C7
:101A700054FA0120BDE8F081000000202DE9F04F6C
:101A800093B004460E4692469B461C9F204601F0AA
:101A9000A7F9044604F13A0001F0A2F9A0F13A04D2
:101AA000002084F8980084F899B0032084F89A0004
:101AB00018208DF84B0003208DF84A008DF8460061
:101AC00004208DF84700012E34D1C648C4F88C009C
:101AD0004FF0250894F8990048B1C34844F8880F9E
:101AE0004FF00E097003A0604010E060883CBF48D2
:101AF0000460012F10D1012144F20900FEF7CAFF52
:101B000001210420FEF70EFF4020ADF848008020A0
:101B1000ADF84400B64D9FE0012144F20500FEF708
:101B2000B9FF4FF40070ADF848004000ADF8440034
:101B3000B04D91E0022E3AD1AF48C4F88C004FF07E
:101B4000260894F8990050B1A7483C3044F8880F13
:101B50004FF011098004A0604010E060883CA74865
:101B60000460012F13D101214804FEF783FF0121F6
:101B70002120FEF78FFF01210820FEF7D3FE202051
:101B8000ADF848004020ADF844009D4D64E00121CF
:101B90004804FEF76FFF01210520FEF77BFF0420BC
:101BA000ADF848000820ADF84400924D54E0032EF3
:101BB00052D19448C4F88C004FF0270894F899004B
:101BC00050B18948283844F8880F4FF00C0920207C
:101BD000A0601020E060883C8B480460012F13D186
:101BE00001218804FEF746FF01211120FEF752FF74
:101BF00001218648FEF796FEB802ADF84800400085
:101C0000ADF84400824D27E0112F15D10121880441
:101C1000FEF730FF01212120FEF73CFF01217B4828
:101C20002030FEF77FFE4FF48070ADF84800400092
:101C3000ADF84400724D0FE001218804FEF71AFF51
:101C400001210920FEF726FF4FF48060ADF848001F
:101C50004000ADF84400664D12A92846FEF7D7FDB6
:101C600011A92846FEF7D3FDCDF834A02298ADF88F
:101C700038002398ADF83A002198ADF83C000020D8
:101C8000ADF840000C20ADF83E0054F88C0F0DA9C3
:101C9000FFF7D2F801212068FFF75DF8607B8C3CEC
:101CA00000283FD001228021D4F88C00FFF75FF894
:101CB00001210846FEF7CEFED4F88C00001D0190ED
:101CC00004F174000290102003900020049005900D
:101CD000802006900020079008900990209820B15D
:101CE000012806D002280CD107E04FF440500A909A
:101CF0000AE04FF400500A9006E04FF480500A903A
:101D000002E000200A9000BF00BF00200B9001A954
:101D1000D4F88800FEF798FC0021D4F88800FEF77C
:101D200071FC06E0002240F22661D4F88C00FFF737
:101D30005EF81D9830B1012809D002280CD0042883
:101D40000FD113E04FF4E060FEF77AFE13E04FF49A
:101D5000C060FEF775FE0EE04FF4A060FEF770FE67
:101D600009E04FF48060FEF76BFE04E04FF4407032
:101D7000FEF766FE00BF00BF8DF830801E988DF81C
:101D800031001F988DF8320001208DF833000CA827
:101D9000FEF71EFE012240F22551D4F88C00FFF719
:101DA00026F894F89900C0B18DF830901E988DF8FF
:101DB00031001F988DF832000CA8FEF709FE54F888
:101DC000880F006840F00200216808602068006801
:101DD00040F0080054F888190860204613B0BDE8A8
:101DE000F08F000000380140440002400C00002049
:101DF000000C014000080140004400401000002099
:101E0000001401400048004014000020100014009D
:101E1000001001400D4AD0F88C10914203D10021EE
:101E20000B4A116010E00B4AD0F88C10914203D19C
:101E30000021094A116007E0084AD0F88C1091424D
:101E400002D10021064A11607047000000380140AD
:101E50000C0000200044004010000020004800401A
:101E60001400002070B506460C460025002001E055
:101E70006D1C401C215C0029FAD12A4621463046BF
:101E8000FFF792FD304670BD13B50446012201A94B
:101E90002046FFF789FD20461CBDFEB506460C46D0
:101EA00000270025002C01DA0127644200BF681CCE
:101EB000C5B20A2094FBF0F100FB11403030C0B2F3
:101EC000C5F10A010DF801000A2094FBF0F4002C82
:101ED000EDD1012F07D12D21681CC0B20546C0F1FC
:101EE0000A000DF800100DF10A00411B2A46304689
:101EF000FFF75AFD3046FEBD10B50446204600F0FF
:101F000041F810211448FEF75EFD12211348FFF737
:101F10003FFA10211048FEF758FD19210F48FFF72E
:101F20005DFA204600F01CF810210B48FEF742FD38
:101F300078B900BF10210848FEF73CFD0028F9D011
:101F400000BF10210448FEF735FD0128F9D001201B
:101F500010BD0020FCE70000000801401800002030
:101F600038B504461020ADF8000003208DF80200BB
:101F700004208DF8030069460148FEF748FC38BD8F
:101F80000008014038B504461020ADF800000320D9
:101F90008DF8020010208DF8030069460148FEF715
:101FA00036FC38BD0008014070B50446002527E026
:101FB00020784006000E207014211348FFF70EFA17
:101FC00000BF10211148FEF7F5FC0028F9D01A21B6
:101FD0000D48FFF703FA10210C48FEF7EBFC01282F
:101FE00008D1207840F00100207028210648FFF732
:101FF000F5F903E0207800F0FE002070681CC5B2FF
:10200000082DD5DB207870BD1800002000080140A5
:102010002DE9F05F04462046FFF76EFFD8B1204659
:10202000FFF7C2FF20722046FFF7BEFF6072204616
:10203000FFF7BAFFA0722046FFF7B6FFE072204616
:10204000FFF7B2FF6070217A607A0144A07A014400
:10205000E07A0844C7B26078B8422CD101202073DE
:10206000607A217A40EA01250A2095FBF0F100FB15
:10207000115000F0FF090A2095FBF0F000F0FF0876
:10208000E17AA07A41EA00260A2096FBF0F000F0FF
:10209000FF0A0A2096FBF0F100FB116000F0FF0B35
:1020A00084F80D8084F80E9084F80FA084F810B0A6
:1020B0000120BDE8F09F0020FBE7000002494160DD
:1020C0000021017370470000CDCCCC3DF0B5064631
:1020D000144600220025706800EB81202044425BFA
:1020E0001019B0F5806F01DD0020F0BDAD1C9446E5
:1020F00016E0706800EB81202044475B38121870AE
:102100005F70AD1C901E82B29B1C012A08D17068C2
:1021100000EB81202044475B1F70501E82B25B1C85
:10212000002AE6DC00201870A3EB0C030120DCE79A
:10213000F0B505460C46059E3146287870B10AE098
:10214000686800EB84208718701A37F81000188030
:102150009B1C481E81B20029F2D10DE00AE068689C
:1021600000EB84208718701A57F8200018809B1CF9
:10217000481E81B20029F2D10120F0BD70B505469C
:102180000C46FEF725FB3520FEF77CFA696801EB6B
:102190008420FEF77DFA08B9002070BDFEF7B8FA7A
:1021A0000120FAE72DE9F04706460C461746984607
:1021B000DDF8209007EB0900B0F5806F02DD00200C
:1021C000BDE8F0874D46FEF703FB57B93520FEF713
:1021D00059FA716801EB8420FEF75AFA08B9002019
:1021E000EEE73078B8B113E0726802EB8422D319BD
:1021F000A9EB050203EB4200B8F80010FEF792FAD3
:10220000042801D00020DBE708F10208681E85B22F
:10221000002DE9D116E013E0726802EB8422D31995
:10222000A9EB050203EB8200B8F80010FEF79AFA5A
:10223000042801D00020C3E708F10208681E85B217
:10224000002DE9D1FEF764FA0120B9E7C1F30903D3
:1022500023B1C1F30903C3F58063194441600270DF
:10226000704700002DE9F04104460D46204600F07D
:1022700012FB0EA12068FFF7F5FD80462946FFF707
:102280000CFE06460DA1FFF7EDFD0D4B0DA20FA1B3
:10229000204600F051F807460CA1384600F01EFB1E
:1022A00010B10120BDE8F0810020FBE741542B4331
:1022B00049505345525645523D312C000D0A0000FD
:1022C000000040404552524F520000004F4B00006A
:1022D0002DE9F04104460D46204600F0DCFA0EA13F
:1022E0002068FFF7BFFD80462946FFF7D6FD06466A
:1022F0000CA1FFF7B7FD0C4B0CA20EA1204600F07D
:102300001BF807460BA1384600F0E8FA10B101208F
:10231000BDE8F0810020FBE741542B434950535462
:102320004F3D00000D0A0000000040404552524F52
:10233000520000004F4B00002DE9F04F85B00446DD
:102340008B4691469A46FEF7BDFF05460E4623E0B2
:1023500010E0012204A92068FFF758FA9DF8100048
:1023600000B907E09DF8100003A90390201D00F0BC
:1023700093FC00BF2068FFF75DFA0028E9DC5946AE
:1023800004F10C0000F0AAFA28B9494604F10C0047
:1023900000F0A4FA00B112E0504601F0F9F8CDE9DE
:1023A0000201FEF78FFF07462A46334601F006F882
:1023B000CDE90001DDE9022300F03AFFC8D300BFF8
:1023C000201D00F083FC002806DD002003A90390F7
:1023D000201D00F061FC00BF04F10C0005B0BDE859
:1023E000F08F2DE9F74F84B082469346FEF76AFFDF
:1023F0008046894620E012E0012202A9DAF80000B6
:10240000FFF704FA9DF8080000B908E09DF80800FD
:1024100001A901900AF1040000F03EFC00BFDAF8C7
:102420000000FFF707FA0028E6DC0AF10C00059926
:1024300000F054FA00B112E0584601F0A9F8044641
:102440000D46FEF73FFF42464B46CDE9000100F046
:10245000B5FF064622462B4600F0EAFECBD300BF6E
:102460000AF1040000F032FC002807DD002001A979
:1024700001900AF1040000F00FFC00BF0AF10C000B
:1024800007B0BDE8F08F00002DE9FE4F04460F466F
:1024900015461E46204600F0FEF91BA12068FFF7F6
:1024A000E1FC1DA12068FFF7DDFC39460090FFF735
:1024B000D9FC1AA10190FFF7D5FC83462946FFF706
:1024C000D1FC824616A1FFF7CDFC81463146FFF7CD
:1024D000E4FC804613A1FFF7C5FC134B13A215A122
:1024E0002046FFF729FF02904FF47A711248FEF759
:1024F0004FFF10A1029800F0F1F910B10120BDE8E2
:10250000FE8F0020FBE7000041542B4349505354F9
:102510004152543D0000000022000000222C220005
:10252000222C00000D0A0000000040404552524F8E
:10253000520000004F4B00001800002070B5044608
:10254000204600F0A8F90CA12068FFF78BFC064696
:102550000CA1FFF787FC0C4B0CA20EA12046FFF745
:10256000EBFE05460BA1284600F0B8F908B10120A2
:1025700070BD0020FCE7000041542B43574D4F44F1
:10258000453D32000D0A0000000040404552524FC8
:10259000520000004F4B000070B50446204600F08A
:1025A0007AF90CA12068FFF75DFC06460CA1FFF745
:1025B00059FC0C4B0CA20EA12046FFF7BDFE0546B0
:1025C0000BA1284600F08AF908B1012070BD002057
:1025D000FCE7000041542B43574D4F44453D31002B
:1025E0000D0A0000000040404552524F52000000CA
:1025F0004F4B00002DE9F04104460D46204600F007
:102600004AF90EA12068FFF72DFC80462946FFF706
:1026100044FC06460CA1FFF725FC0C4B0CA20EA1B6
:102620002046FFF789FE07460BA1384600F056F911
:1026300010B10120BDE8F0810020FBE741542B439D
:1026400049504D55583D00000D0A00000000404023
:102650004552524F520000004F4B00002DE9F04709
:1026600004460D4616461F4605F13000C5B2204609
:1026700000F011F90FA12068FFF7F4FB294620684C
:10268000FFF702FC82460EA1FFF7ECFB81463146C4
:10269000FFF703FC80460BA1FFF7E4FB64210A4827
:1026A000FEF776FE324639462068FFF77DF9BDE831
:1026B000F087000041542B43495053454E443D00A0
:1026C0002C0000000D0A0000180000202DE9F04148
:1026D00004460D461646204600F0DDF80BA12068A2
:1026E000FFF7C0FB29462068FFF7D7FB07460AA182
:1026F000FFF7B8FB64210948FEF74AFE2A46314637
:102700002068FFF751F9BDE8F081000041542B43E8
:10271000495053454E443D000D0A0000180000206A
:1027200010B50446204600F0B6F805A12068FFF772
:1027300099FB054A05A1204600F098F810BD00005D
:1027400041540D0A00000000000040404F4B0000C3
:102750002DE9F05F04460F461546204600F09BF831
:1027600019A12068FFF77EFB1AA12068FFF77AFB0A
:1027700083463946FFF776FB814617A1FFF772FBC8
:1027800080462946FFF76EFB064614A1FFF76AFB59
:10279000002605E04FF47A711148FEF7F9FD761C2A
:1027A000142EF7DB0F4B10A211A12046FFF7C4FD3A
:1027B00082460DA1504600F091F810B10020BDE80E
:1027C000F09F0120FBE7000041542B43574A415042
:1027D0003D00000022000000222C2200220D0A00F1
:1027E00018000020000040404641494C0000000015
:1027F0004F4B000010B50446204600F04CF805A1F0
:102800002068FFF72FFB064A06A1204600F02EF8AD
:1028100010BD000041542B5253540D0A000000001B
:10282000000040404F4B00002DE9F04104460D46AA
:10283000204600F030F809A12068FFF713FB074697
:102840002946FFF72AFB064605A1FFF70BFB054AC1
:1028500005A1204600F00AF8BDE8F081415445008A
:102860000D0A0000000040404F4B00002DE9F041F0
:1028700004460D461646324629462046FFF7B1FD6E
:1028800007462946384600F029F810B10120BDE876
:10289000F0810020FBE770B504462068FEF7D1FF09
:1028A000002505E0002104F10C004155681C85B2AB
:1028B000201D00F00BFAA842F4DC201D00F009FAFC
:1028C00070BD70B504460D462560201D00F006FA67
:1028D000041F2046FFF7DFFF204670BD70B5044699
:1028E0000D4629462046FDF78BFC70BD2DE9F041D1
:1028F000074690460E4600251020FDF7ADFC04006B
:102900000BD0C4F80C80C4E90176FDF7A1FC016886
:10291000216004602846BDE8F0810125FAE72DE931
:10292000F0410646FDF794FC804613E026B1E068CE
:10293000B04201D025460EE020682860D4E90101AC
:10294000D8F8007088472046FDF72EFDD8F8000023
:10295000B84200D045462C68002CE7D1BDE8F08194
:1029600000B50248FEF780FD00BD00001800002001
:1029700000B50248FEF78AFE00BD0000CC0500202D
:1029800010B588B000200323CDE9043006900790ED
:10299000012007211A460023CDE90032CDE90210BB
:1029A00003464FF4E13201462648FFF767F8044634
:1029B000254A2649FFF79AFF00200323CDE904307A
:1029C00006900790012007211A460023CDE9003226
:1029D000CDE9021003464FF4E13203211C48FFF712
:1029E0004DF80446184A1949FFF780FF03201023C9
:1029F0000B22184900901848FEF7BEFE0320102352
:102A00000022164900901648FEF7B6FE012215492D
:102A10001548FFF71BFC14491448FEF74AFC1448FC
:102A2000FFF74CFB0A491348FFF74BFF0A4A07CA56
:102A30008DE807000A480EC80F48FEF7DBFE08B015
:102A400010BD00004C00002000000008151E00080A
:102A5000E80000200008014084010020000C014033
:102A60009001002000900108040000209C0100203B
:102A7000AC010020C0010020B40500208AB0002570
:102A80000021089109910691079104910591002474
:102A900004210F20FDF7A0FB04211420FDF79CFB6F
:102AA000804604211420FDF797FB81466648FEF717
:102AB00013FBC8B109E040F2574364A249464046BF
:102AC000FEF730FA08B1012406E04A4641465E4866
:102AD000FEF779FB0028EED100BF54B9002142F285
:102AE0002830FEF763FA04E0002142F22830FEF7B6
:102AF0005DFA01215948FEF727FE14B95848FEF740
:102B00005DFEA0E057495848FEF7F0FC0546CC2D85
:102B100037D006DC012D09D0022D08D0032D73D14A
:102B200036E0EE2D5BD0FF2D6ED15FE08AE025E030
:102B300000224E4B08A94E48FEF776FCB8B14D482E
:102B4000FFF766FA4B48007B012810D14A49002262
:102B50004848007CCDE9012100904648C37B827B38
:102B6000417B4148FEF792FC0020424908733D49F1
:102B70003D48FEF7BBFC012800D100E0D8E700BFCC
:102B800060E03148FEF7ABFA3C483D49086059E047
:102B9000FEF798FBCDE904011EE0324A4946404663
:102BA000FEF748FA80B141463648FFF75BF98246A6
:102BB00035A1FFF757F907464946FFF753F906468F
:102BC00032A1FFF74FF908E00022314B04A9284851
:102BD000FEF72AFC00B100E0DFE700BF32E0002191
:102BE00042F22830FEF7E2F900242BE02CB101225A
:102BF00021491D48FEF728FD04E000221E491A481D
:102C0000FEF722FD1EE0FFE70022184B08A9184836
:102C1000FEF70AFC10B11748FFF7FAF900221D4B26
:102C200006A91348FEF700FC58B12CB10122124945
:102C30000D48FEF709FD04E000220F490A48FEF79F
:102C400003FD00BF00BF5DE79C0100203131332E42
:102C50003235302E3131302E3234310090010020A7
:102C6000B4050020E8000020CC050020000008404A
:102C700018000020AC010020C00100200400FA056B
:102C80000CED00E04C000020090000000A000000EC
:102C900000003E4000004E4010B5024650881388A8
:102CA000984201DB002010BD0B78D488601CD080D6
:102CB00002F108000355D0881388984201DB0020F8
:102CC000D0805088401C50800120ECE701464888A5
:102CD0007047002141808180C18070474FF47A7134
:102CE0000180002141808180C18070470246508868
:102CF000002801DC002070479388581C908002F166
:102D00000800C05C087090881388984201DB00209E
:102D100090805088401E50800120ECE710B502469C
:102D200050881388984201DB002010BD0B78D488AE
:102D3000601CD08002F108000355D08813889842A7
:102D400001DB0020D0805088401C50800120ECE73F
:102D500030B503465888904201DA002030BD00208B
:102D60000EE09D886C1C9C8003F10804645D0C548B
:102D70009C881D88AC4201DB00249C80441CA0B2CE
:102D80009042EEDB5888801A58800120E6E770B543
:102D90000346588810441C88A04201DD002070BD05
:102DA00000200EE00D5CDE88741CDC8003F108045A
:102DB000A555DC881D88AC4201DB0024DC80441C66
:102DC000A0B29042EEDB5888104458800120E6E71C
:102DD000014648887047002141808180C18070474A
:102DE00032210180002141808180C1807047000034
:102DF00010B591EA030F48BF83F0004300F1E6826B
:102E0000841A71EB030C05D2121943EB0C03001B5F
:102E100061EB0C01DFF824E14FEA1154A4EB135CE1
:102E20001EEA430F18BF9EEA445F73D023EA0E03E5
:102E3000DCF1200E21EA045143F4801332D322FA4C
:102E40000CFE10EB0E0023FA0CFE41EB0E01CCF150
:102E5000200E03FA0EFE10EB0E0051F10001B1F549
:102E6000801FCCF1200E32D201EB045112FA0EF287
:102E7000BDE8104058BF7047401C38BF5FEA4202AF
:102E800018BF7047002814BF20F0010041F1000175
:102E90004FEA410313F5001F38BF7047A1F1C0414D
:102EA00000F050BA012A43EB0302ACF1200CDCF134
:102EB0001F0E32BF4FF0000E23FA0CF310EB03008D
:102EC00041EB0451B4EB115FD0D0A1EB045101F5FB
:102ED000801149085FEA300001EB04510ED350F134
:102EE000000038BF12FA0EFE08D1BDE81040C9E755
:102EF000401C38BF5FEA4202CAD1C3E7BDE81040B8
:102F00004FEA410313F5001F38BF7047A1F1C041DC
:102F100000F018BA9EEA445F08D011EA5E0FBDE8DF
:102F2000104004BF01F0004100207047BDE8104090
:102F300070B500F0B9F900BF64FBBE3E0000E0FFD1
:102F4000491058BFC1F140415B1058BFC3F1404325
:102F50008B42EFF3008070472DE9C04130B4DFF8B9
:102F6000A0C23CEA111418BF3CEA131400F0EC8034
:102F700081EA03051CEA111444EAD57418BF1CEA5F
:102F8000131500F0C780A4EB05044FF0004545EA97
:102F9000C12145EAC32341EA505143EA525304F1A7
:102FA0007F74994204F500344FEAC0204FEAC222F0
:102FB00008BF904200F09C804FEA13650FF2401664
:102FC000765D4FEA134506FB05F7C7F1807706FBF0
:102FD00007F74FEAD737A7FB03687642C8F5803872
:102FE000A7FB06CE38BFA8F1010807FB08E64FF0A3
:102FF000000EA6FB028CE6FB03CEDCF1000CCEF14A
:10300000004E38BFAEF1010EA6FB0C584FF0000782
:103010004FF00005E6FB0E87A1FB08C6A0FB07CE1C
:1030200016EB0E0645F10005E1FB076515F1E04ED4
:103030007EBFA4F580345FEA46066D4116F1800735
:1030400045F100054FEA17274FEA066647EA05678C
:10305000A6F1DE46B6F1805F4FEA15251FD9384646
:1030600024F0010C05EBC471BCF1FE6F01EB0C11F7
:1030700002D8F0BCBDE8008124425CBF01F5801E8F
:103080009EEAC47F02D4F0BCBDE80081244238D45B
:10309000F0BCA1F1C041BDE8004100F053B94FEAD6
:1030A000D22242EA43524FEAD323A7FB02864FEAD9
:1030B000D02040EA415007FB03661EEA0E0F4FEA9C
:1030C000D12105FB026658BFA6EB0056B6EB0056B1
:1030D0004FEA520E4EEAC37E18EB0E0E56EB530E1D
:1030E000BDD518EB02085E417F1C55F10005B6E71F
:1030F0004FF480154FF000074FF000064FF0000826
:10310000ADE7F0BC4FF0000001F1C04101F000411B
:10311000BDE8008111EA0C1F0CEA131500D00CE089
:1031200013EA0C1F00F025804FF00000F0BC81EA8C
:10313000030101F00041BDE80081F0BCBDE80041A1
:1031400081EA030100F0FEB8F0BCBDE8004170B5B3
:1031500000F0AAF8097EFC3E00F007B881EA0301FE
:103160004FF0000001F00041704781EA030100F0D8
:10317000E9B8F0BCBDE800414FF0000021497047BC
:10318000FFFDFBF9F7F5F4F2F0EEEDEBE9E8E6E42C
:10319000E3E1E0DEDDDBDAD8D7D5D4D3D1D0CFCDB3
:1031A000CCCBCAC8C7C6C5C4C2C1C0BFBEBDBCBBEC
:1031B000BAB9B8B7B6B5B4B3B2B1B0AFAEADACABE7
:1031C000AAA9A8A8A7A6A5A4A3A3A2A1A09F9F9EC1
:1031D0009D9C9C9B9A999998979796959594939373
:1031E000929191908F8F8E8E8D8C8C8B8B8A89890A
:1031F000888887878685858484838382828181808D
:103200000000FF070000F87FB0FA80F310FA03F126
:103210000AD0C3F11D0303F580634FEA41504FEA22
:10322000035202EBD12170474FF0000070470000BD
:1032300051EA030C17D41CF5801F58BFBCF5801F42
:1032400000F10680994218BF704708BF904270474E
:1032500007D711F5801F58BF13F5801F19D4994265
:103260007047894270471CF5801F08D5BCF5801F48
:10327000F7D58B4218BF704708BF824270474FF4A2
:10328000001C1CEB410F38BF1CEB430F01D28B42DB
:10329000704770B500F008F8922449004FF00051D3
:1032A0004FF08053FFF74CBE0EF1020E2EF0030ECE
:1032B0005EF8046B364205D4012A43EB030515F58D
:1032C000001F12D8012841EB010C1CF5001F0CD87F
:1032D0000ED14FEAD17C15F5001F0CEB4C0C0CF114
:1032E000020C08BF4CEBD37C04E04FF0080C01E06B
:1032F0004FEAD37C0CEB4C0526FA05F606F00706E0
:10330000B6F1040C06D20EEB860CBDE870404CF012
:10331000010C6047DFE80CF0090B02024FF000419E
:103320004FF00000A1F5002170BD1946104601289C
:1033300051EB010418BFD4F5001484BF002001F044
:10334000004170BD0808A0F500114FEA3101704737
:1033500053EA010C17D41CF5801F58BFBCF5801F21
:1033600000F106808B4218BF704708BF8242704749
:1033700007D713F5801F58BF11F5801F19D48B4252
:1033800070479B4270471CF5801F08D5BCF5801F15
:10339000F7D5994218BF704708BF904270474FF465
:1033A000001C1CEB430F38BF1CEB410F01D29942AC
:1033B00070470FB40CBC03BCFFF76BBF10B591EAAC
:1033C000030F48BF83F000433FF51AAD841A71EB39
:1033D000030C07D212198CF0004C43EB0C03001BBA
:1033E00061EB0C01DFF8A4E14FEA1154A4EB135C8C
:1033F0001EEA430F18BF9EEA445F00F0B08023EA44
:103400006E03524221EA0451C3EB6E0338BF5B1EC8
:10341000DCF1200E25D322FA0CFE10EB0E0043FA4D
:103420000CFE41EB0E01CCF1200E03FA0EFE10EB68
:103430000E0051F10001CCF1200E29D412FA0EF247
:1034400001EB0451BDE8104058BF7047401C1CBF41
:10345000B2F1004F704700280CBF491C20F001005A
:10346000704712EB020E43EB030218BF4FF0010E40
:103470004EEA4202ACF1200CDCF11E0E54D943FAA4
:103480000CFE10EB0E0051F1FF31CCF11E0ED5D524
:103490000EF1010E12FA0EFE404141EB010101EB6B
:1034A000445C5FEA5C5C10D910EBDE7001EB045108
:1034B00038BFBEF1004FBDE8104018BF704700286C
:1034C0000CBF491C20F00100704730D24FEAD42CC9
:1034D00011F5001124F400641BD0B1FA81F20B3A0B
:1034E000A41AA41ED2F12003914030FA03F3194329
:1034F000904001EBCC71002C01EB0451BDE8104071
:10350000A8BF704701F1C0414FF0000001F0004139
:103510007047B0FA80F310FA03F100D110BDE41A3D
:10352000173C4805C90AE4E701EB045110BD4910F6
:1035300001EB0451BDE810404FEA300002E04FF0CB
:10354000000170474A0008BF0042F8D0B2F5001FE2
:1035500028BF704701F000414FF0000070479EEA1D
:10356000445F07D011EA5E0FBDE8104004BF0021A0
:1035700000207047BDE8104070B5FFF795FE00BF12
:1035800040DFF63E83F00041104670470000E0FF48
:1035900043004FEAD30C4FEA3C0C43401FBF4007A7
:1035A0000CF1605113F0FE4F70471CF0006F03D117
:1035B00000200CF0004170470CF0004343EA5070CB
:1035C00010B540EACC0000F00EF800BF00000092F9
:1035D0004FEA0001FFF7B6BE4FF000414FF0000088
:1035E000A1F5002170470EF1020E2EF0030E5EF8D9
:1035F000044B244204D44FEA4102B2F17F4F11D868
:103600004FEA4003B3F17F4F0CD80ED14FEAD07C84
:10361000B2F17F4F0CEB4C0C0CF1020C08BF4CEBE1
:10362000D17C04E04FF0080C01E04FEAD17C0CEBB8
:103630004C0324FA03F404F00704B4F1040C06D29A
:103640000EEB840CBDE810404CF0010C6047DFE845
:103650000CF0070802024FF00040A0F5800010BDFA
:103660000846420018BFD2F1807288BF00F00040C7
:1036700010BD0100020004000800100020004000FE
:10368000800000010002000400080010002000403B
:1036900000800000C0360008000000204C00000040
:1036A000280100080C3700084C0000200C0C00001A
:1036B00044010008CDF2FFFFB9F2FFFFA5F2FFFFC2
:1036C00000000000000000000000000000000000FA
:1036D00000000000000000000000000000000000EA
:1036E00000000000000000000000000000000000DA
:1036F00000000000000000000000000001020304C0
:0C37000001020304060708090204060881
:04000005080000ED02
:00000001FF
